:1000000003C2000032C2000030C200002EC2000055
:100010002CC200002AC2000028C2000026C2000034
:1000200024C2000022C2000020C200001EC2000044
:100030001CC200001AC2000018C2000016C2000054
:1000400014C2000012C2000010C200000EC2000064
:100050000CC200000AC2000008C200000C944A1141
:1000600004C200000C9414110C94EA10FEC10000AC
:10007000FCC10000FAC10000F8C10000F6C1000098
:10008000F4C10000F2C10000F0C10000EEC10000A8
:10009000ECC10000EAC10000E8C10000E6C10000B8
:1000A000E4C10000E2C10000E0C10000DEC10000C8
:1000B000DCC10000DAC10000D8C10000D6C10000D8
:1000C000D4C10000D2C10000D0C10000CEC10000E8
:1000D000CCC10000CAC10000C8C10000C6C10000F8
:1000E000C4C1000008000000BE922449123EABAA21
:1000F000AA2ABECDCCCC4C3E00000080BEABAAAA42
:10010000AA3E00000000BF000000803F0000000089
:1001100000084178D3BB4387D1133D190E3CC3BDC2
:100120004282AD2B3E68EC8276BED98FE1A93E4C6F
:1001300080EFFFBE01C4FF7F3F000000000097A0DA
:10014000895B5A0F830DC95F6035C2E907E18C24D2
:10015000671E458E086325F0150A17BE0694F778CA
:10016000EA4B001AC53E5EFCDBCB75230B2039B190
:100170002158ED953857AE147D88ABA844AF4AA5F9
:1001800047868B301BA64D929EE7536FE57A3CD392
:1001900085E6DC695C29372EF528F4668F3641192F
:1001A0003FA101D85049D14C84BBD05912A9C8C431
:1001B000878274BC9F56A4646DC6ADBA034034D91F
:1001C000E2FA7C7B05CA2693767EFF5255D4CFCEC9
:1001D0003BE32F103A11B6BD1C2ADFB7AAD577F83A
:1001E00098022C9AA346DD99659BA72BAC09811632
:1001F00027FD13626C6E4F71E0E8B2B97068DAF6F1
:1002000061E4FB22F2C1EED2900CBFB3A2F15133F4
:1002100091EBF90EEF6B31C0D61FB5C76A9DB8548C
:10022000CCB07379322D7F0496FE8AECCD5DDE7200
:10023000431D1848F38D80C34E42D73D9CB49700B0
:10024000002100240027002A002D00300033000187
:10025000010000040107010A010000220025002816
:10026000002B002E003100340002010000050108BF
:10027000010B01050505050705080808080202022B
:10028000020A0A0808040404040101010101010131
:10029000010303030303030303040707070C0C0C08
:1002A0000C0C0C0C0C0202020206060606060606E0
:1002B000060B0B0B0B0B0B0B0B010210202008087D
:1002C00010204010204080020102010804020101B8
:1002D00002040810204080804020100804020180A1
:1002E00004020180402010080402010804020101F8
:1002F0000204081020408001020408102040800001
:10030000000A0B02090C0D0E08070304010000008F
:1003100000000000000000000000000000000000DD
:10032000000000000000000000000012111000009A
:1003300000000000000000000000000000000000BD
:100340000000000000AB0055007C0084004B00B5AD
:10035000001B00E5000017E8000047B8000077AB7D
:100360000000ABAB000055AB000022DD000E00F238
:10037000003E00C20071008F00A1005F00D0002F7E
:1003800000F90700000000000000008000000000ED
:10039000000000800000008B000000800000008B47
:1003A0000000008B0000008B000000FF0000A5FF94
:1003B00000FFFFFF0000A5FF000000FF0000008B12
:1003C0000000000000701919008B0000007019195E
:1003D00000800000008B000000CD000000578B2E35
:1003E0000080800000A09E5F00FF0000008B8B005B
:1003F00000ED956400D4FF7F00578B2E00FFFF00B7
:1004000000FACE870000941111241FBECFEFD1E275
:10041000DEBFCDBF00E00CBF13E0A0E0B2E0E2EF32
:10042000F0E500E00BBF02C007900D92A430B107C9
:10043000D9F729E0A4E0B3E001C01D92AE37B207BE
:10044000E1F712E0C4E0D2E000E006C02197010924
:10045000802FFE010E946528C330D10780E0080785
:10046000A9F70E94E5110C947728CACD20E330E06B
:100470004CE159E0FC01DA0120FF05C002C0019007
:100480000D9201900D922250D0F73040C0F7CA0172
:100490000895DC01EEE0F6E08C91808311968C915A
:1004A0001197818312968C9112978283339688E0FC
:1004B000E636F80789F7089580E991E00895AF924C
:1004C000BF92CF92DF92EF92FF920F931F93CF9341
:1004D000DF936C017B018B01040F151FEB015E01A3
:1004E000AE18BF08C017D10759F06991D601ED9138
:1004F000FC910190F081E02DC6011995892B79F7C7
:10050000C501DF91CF911F910F91FF90EF90DF9088
:10051000CF90BF90AF900895FC01538D448D252F4F
:1005200030E0842F90E0821B930B541710F0CF968D
:10053000089501970895FC01918D828D981761F0BF
:10054000A28DAE0FBF2FB11D5D968C91928D9F5FD6
:100550009F73928F90E008958FEF9FEF0895FC01B5
:10056000918D828D981731F0828DE80FF11D858D68
:1005700090E008958FEF9FEF0895FC01918D228DFB
:10058000892F90E0805C9F4F821B91098F73992780
:10059000089582E798E0F1DF21E0892B09F420E05B
:1005A000822F0895FC01A48DA80FB92FB11DA35A65
:1005B000BF4F2C91848D90E001968F739927848F83
:1005C000A689B7892C93A089B1898C9183708064A6
:1005D0008C93938D848D981306C00288F389E02D47
:1005E00080818F7D80830895EF92FF920F931F93F8
:1005F000CF93DF93EC0181E0888F9B8D8C8D9813D6
:100600001AC0E889F989808185FF15C09FB7F894E1
:10061000EE89FF896083E889F9898081837080642D
:1006200080839FBF81E090E0DF91CF911F910F9178
:10063000FF90EF900895F62E0B8D10E00F5F1F4F87
:100640000F731127E02E8C8D8E110BC00FB607FC97
:10065000FACFE889F989808185FFF5CFCE01A2DF45
:10066000F2CFEB8DEC0FFD2FF11DE35AFF4FF0821F
:100670009FB7F8940B8FEA89FB8980818062D0CF85
:10068000CF93DF93EC01888D8823B1F0AA89BB89D1
:10069000E889F9898C9185FD03C0808186FD0CC0B5
:1006A0000FB607FCF7CF8C9185FFF2CF808185FFD5
:1006B000EDCFCE0177DFEACFDF91CF91089580E0D3
:1006C00090E0892B21F065DF81110E94000080E01D
:1006D00090E0892B49F080E090E0892B29F00E947E
:1006E000000081110E94000080E090E0892B49F019
:1006F00080E090E0892B29F00E94000081110E9487
:10070000000080E090E0892B49F080E090E0892BA8
:1007100029F00E94000081110C9400000895282FF8
:1007200030E0F901E150FD4F9491F901E754FD4F9C
:1007300044912D583D4FF9012491222309F435C0ED
:10074000992311F191509231F8F4E92FF0E08827C4
:10075000E355FC4F8F4F0C946528DE03E203BF0383
:10076000D603DA03C403E503EB03EF03F503F90350
:10077000FD0303040704C4030B0411041504809152
:1007800080008F7780938000E22FF0E0EE0FFF1F54
:10079000E75AFD4FA591B4918FB7F894EC91611190
:1007A00048C040954E234C938FBF089580918000A0
:1007B0008F7DE8CF80918000877FE4CF84B58F77ED
:1007C00084BDE2CF84B58F7DFBCF8091B0008F7761
:1007D0008093B000D9CF8091B0008F7DF9CF809108
:1007E00090008F7780939000CFCF809190008F7D85
:1007F000F9CF80919000877FF5CF8091A0008F770F
:100800008093A000C1CF8091A0008F7DF9CF80910F
:10081000A000877FF5CF809120018F778093200102
:10082000B3CF809120018F7DF9CF80912001877F08
:10083000F5CF4E2BB8CFCF93DF9390E0FC01E75478
:10084000FD4F24918D589D4FFC0184918823D1F058
:1008500090E0880F991FFC01E15CFD4FA591B491D8
:10086000FC01E75AFD4FC591D49161110EC09FB7AD
:10087000F8948C91E22FE0958E238C932881E223CB
:10088000E8839FBFDF91CF9108958FB7F894EC91E3
:10089000E22BEC938FBFF6CF863308F0865320917E
:1008A0007B00982F9870277F922B90937B00877006
:1008B000806480937C0080917A00806480937A00C9
:1008C00080917A0086FDFCCF80917800909179002C
:1008D00008953FB7F89480910B0390910C03A09179
:1008E0000D03B0910E0326B5A89B05C02F3F19F04C
:1008F0000196A11DB11D3FBFBA2FA92F982F8827A0
:10090000BC01CD01620F711D811D911D42E0660F7A
:10091000771F881F991F4A95D1F708958F929F924C
:10092000AF92BF92CF92DF92EF92FF926B017C0168
:10093000D0DF4B015C01C114D104E104F104B1F03A
:10094000C8DF681979098A099B09683E73408105E7
:10095000910588F321E0C21AD108E108F10888EE78
:10096000880E83E0981EA11CB11CE5CFFF90EF908C
:10097000DF90CF90BF90AF909F908F9008952FB74A
:10098000F894609107037091080380910903909196
:100990000A032FBF0895EF92FF920F931F93CF93F7
:1009A000DF937C01EB018A018FEFE816F10409F077
:1009B00010F4FE2CEE24E3DF9B01AC01A8E1B1E0D2
:1009C0000E944F259B01AC01D7010E944F25AC012D
:1009D00066277727CA0133E0969587953A95E1F720
:1009E00097709A0122273074232B31F02FEF37E0D4
:1009F000F901E81BF90BCF01E92FEE0FEE0FF0E044
:100A0000E653FD4F2081318186959281899F200D8B
:100A1000311D112457FF03C03195219531093058FC
:100A20000C1B1D0B209FB001319FC001E0E0309FE7
:100A3000700D811D9E1F219F700D811D9E1F112411
:100A4000620F731F8E1F9E1F8C0F9D1FDF91CF9112
:100A50001F910F91FF90EF9008954F925F926F92C8
:100A60007F929F92AF92BF92CF92DF92EF92FF92CE
:100A70000F931F93CF93DF9300D0CDB7DEB7F090E5
:100A80000F098091120990911309A0911409B09156
:100A90001509892B8A2B8B2BD1F01BDF00916E0857
:100AA00010916F082091700830917108601B710BD4
:100AB000820B930B009112091091130920911409D4
:100AC000309115096017710782079307D0F201DF93
:100AD00060936E0870936F0880937008909371080C
:100AE000E0911A09F0911B09309759F040911609CD
:100AF0005091170960911809709119098F2D199556
:100B0000F82E00916C0810916D084F2C512C712C0F
:100B1000612C0115110509F45EC0D8011C96EC90FA
:100B20001C9780911009909111098436910510F459
:100B30001C961C92D801ED91FC91A280B380198281
:100B40001A821B82FF2089F1F8013696D12CC12C24
:100B50002191222319F19280992001F130E050E097
:100B600040E02F5F3F4F4F4F5F4FC301B2010E94E4
:100B700023289B01AC01892D90E0B0E0A0E0BC01EE
:100B8000CD016F5F7F4F8F4F9F4F0E942328A1E0C1
:100B9000B0E0AC0FBD1FAC0DBD1D8C93BFEFCB1AE9
:100BA000DB0A83E0C816D10499F6D8011D964D9151
:100BB0005C911E9712966D917C919E012F5F3F4F25
:100BC000C801F5011995D8011C96EC921C97149652
:100BD0000D911C919ECF80916A0890916B088C01B9
:100BE0000F5F1F4F10936B0800936A084997A4F199
:100BF000C6DEC0906608D0906708E0906808F09064
:100C000069089B01AC012C193D094E095F0921F4CB
:100C100021E030E040E050E088EE93E0089FB00132
:100C2000099F700D189F700D1124072E000C880B62
:100C3000990B0E945F25309311092093100910929F
:100C40006B0810926A089BDE6093660870936708D1
:100C500080936808909369080F900F900F90DF9130
:100C6000CF911F910F91FF90EF90DF90CF90BF90A9
:100C7000AF909F907F906F905F904F900895282F36
:100C8000382F37FD2095229F020E20E0211D000CF9
:100C9000221F37FD20951124822F0895BF92CF92F5
:100CA000DF92EF92FF920F931F93CF93DF93C62EA5
:100CB000092F10E0F801E25CFE4F2491270F30E08D
:100CC000F901E25CFE4FF490215C3E4FF901D491B2
:100CD000015C1E4FF8010491700F072F10E0F8011E
:100CE000E25CFE4FC491015C1E4FF801E490182FA6
:100CF0001695D62ED694BD2CC2DF082F8C2DBFDFC3
:100D0000582F40E8410FEC2FF0E0E25CFE4F949149
:100D1000342F2D2D92FD02C03D2D242F90FD2195C5
:100D200091FD319535952595231FEF2DF0E0E25C7F
:100D3000FE4FE491312FE2FF02C03D2DB12EE0FDC8
:100D40003195E1FDB1946B2D65953595361F3217C0
:100D50000CF048C0231B209F020E20E0211D11240F
:100D6000230F30E83D0DEE2DF0E0E25CFE4FE49104
:100D7000632FE2FF02C0642F432FE0FD4195E1FDA8
:100D8000619565954595461FED2FF0E0E25CFE4FBD
:100D9000E491E2FF03C0812F132F382FE0FD11955E
:100DA000E1FD319535951595131F141734F5411B49
:100DB000409F040E40E0411D1124140F211734F50B
:100DC000121B159F010E10E0111D1124210F822FFF
:100DD000DF91CF911F910F91FF90EF90DF90CF9017
:100DE000BF900895832F821B282F209F020E20E0A2
:100DF000211D1124321B232FB4CF312F341B309FE0
:100E0000030E30E0311D1124131BD8CF322F311BBC
:100E1000359F030E30E0311D1124231BD8CF1F93C3
:100E2000DC01FB017C9111964C91119712961C915B
:100E3000972F990F990F990F35E5292F239F020EB0
:100E400020E0211D1124822F672F6074572F5072CC
:100E500077FD6FC061115BC0511105C0922F909555
:100E6000892F90E004C025E5280F90E08BEA4F3FE2
:100E700009F424C0442309F47DC0882331F0382FBD
:100E8000349F030E30E0311D832F222321F0249F55
:100E9000020E20E0211D992331F0392F349F030EDB
:100EA00030E0311D932F1124342F3095339F030EE2
:100EB00030E0311D1124830F230F930F1F3F09F4DE
:100EC00021C030E0112321F0119F312D09F03F5F47
:100ED000332309F453C0882331F0482F439F040E75
:100EE00040E0411D842F222321F0239F020E20E0A9
:100EF000211D992331F0492F439F040E40E0411DED
:100F0000942F11248083218392831F91089551117E
:100F10000BC0392F2AEA329F030E30E0311D112415
:100F20009BEA931B280F9CCF90E02095982F80E0A0
:100F30009ECF611112C051110CC0392F2AEA329F85
:100F4000030E30E0311D11242BEA231B95E5930F8E
:100F5000EECF922F909520E08ACF511106C025E563
:100F6000280F9BEA981B822FF6CF2AEA280F90E0E1
:100F7000932FF8CF9FEF2FEF8FEFA0CF90E020E0DF
:100F800080E0C0CF2F923F924F925F926F927F92FC
:100F90008F929F92AF92BF92CF92DF92EF92FF9289
:100FA0000F931F93CF93DF9300D01F921F92CDB763
:100FB000DEB72C017B01DA016901F801261737073A
:100FC000C0F49181828111964C91119712963C91B7
:100FD000129720815C915083418332832C93119628
:100FE0009C93119712968C9312978F2D7601C62E93
:100FF000D82E82810181882311F0011102C09C91B9
:10100000908312966C90129711962C911197908163
:10101000662011F0211101C09C9330E010E0021B0A
:10102000130B1695102F002717950795712CE82F95
:10103000F0E0E619F709F695FE2FEE27F795E7950C
:101040004C91941B97FF4CC09195792F7695692F01
:101050006795662767957195619571095601AE1878
:10106000BF0819F4AA24A394B12CCB01B5010E94A6
:1010700052284B01C801B5010E9452281B01CF0123
:10108000B5010E945228880C991C220C331CCB01FC
:10109000880F991F9D838C83042F10E0102F002749
:1010A000B22EAA24762C6624CE14DF0400F1198314
:1010B000BA827B82B701660F771F6E0D7F1D640DAC
:1010C000751DCE010196ABDE080D191DA20CB31CD7
:1010D0008C819D81680E791E9FEFE91AF90AE4CF91
:1010E000792F7695692F679566276795B7CF0F900B
:1010F0000F900F900F900F90DF91CF911F910F9154
:10110000FF90EF90DF90CF90BF90AF909F908F9027
:101110007F906F905F904F903F902F9008950F9326
:101120001F93CF93DF93FC01842F82958F704F70B4
:10113000EB01A82FAA0FA80FA60FB72FB11D4423AC
:1011400019F031E0012B09F430E06C9111965C91BB
:10115000119712969C911297332309F42AC08F306D
:1011600011F0ED0123964295407F742F7095679F93
:10117000060E60E0611D3881349F030E30E0311DA2
:10118000630F579F050E50E0511D3981349F030EA8
:1011900030E0311D530F392F379F030E30E0311DE2
:1011A0009A81792F749F070E70E0711D932F970F0E
:1011B00011242F3FC1F02223F9F02F5F662321F085
:1011C000629F060E60E0611D552321F0529F050EBF
:1011D00050E0511D992331F0392F329F030E30E03A
:1011E000311D932F1124608351839283CF01DF91AE
:1011F000CF911F910F91089590E050E060E0F3CF00
:10120000FC0190E080E02081249F020E20E0211D5F
:1012100020832181249F020E20E0211D2183228131
:10122000249F020E20E0211D228311240196339673
:101230006817790741F70895AF92BF92DF92EF9256
:10124000FF920F931F93CF93DF9300D0CDB7DEB7FC
:101250005B01D22E49832FEF2B8320EF2A838C0151
:10126000F12CE12CEA14FB0469F0B801CE010196DF
:10127000D6DD89818D0D89838FEFE81AF80A0D5F1D
:101280001F4FF0CF0F900F900F90DF91CF911F91D4
:101290000F91FF90EF90DF90BF90AF900895CF93A4
:1012A000DF93EC016CDB688379838A839B83DF9116
:1012B000CF9108950F931F93CF93DF932091050350
:1012C0002F5F322F37703093050320FF2BC020E8AB
:1012D00031FD2064347009F02062205FFC01EC01D4
:1012E000239600E011E06485662329F070E0C801D0
:1012F0000E9452286F5F6187322F369F030E30E0C5
:10130000311D1124311110C01682662311F0615075
:1013100061873196EC17FD0731F7DF91CF911F916F
:101320000F91089520E0D4CF31503683EECF6F92E5
:101330007F928F929F92AF92BF92CF92DF92EF9265
:10134000FF920F931F93CF93DF933C01EB01C1DA20
:10135000F30127853089621B730B6A307105B8F37E
:10136000F894E881F981509102015860409102019E
:10137000477F40930201EA848F812E2D281B822F04
:101380002F83DF84AA81BB816D857C85FE846F5F9E
:101390007F5FF3949E813885B984AB84118120E00E
:1013A000C32E022F322F3181112788943111380F2B
:1013B00008F43FEF8195889460FD130F179588948A
:1013C00061FD130F1795889462FD130F179588948C
:1013D00063FD130F1795889464FD130F1795889478
:1013E00065FD130F1795889466FD130F1795889464
:1013F00067FD130F17958894232F6111212F8E0DF0
:10140000122F002C50930201002C17FF4093020171
:1014100030812227889400C000C04093020131111E
:10142000390F00C050930201002C16FF40930201B7
:1014300008F43FEF9195889400C000C040930201EA
:1014400070FD230F00C050930201002C15FF409344
:1014500002012795889471FD230F00C000C04093BE
:1014600002012795889400C050930201002C14FFBC
:101470004093020172FD230F2795889400C000C09D
:101480004093020173FD230F00C050930201002C12
:1014900013FF409302012795889474FD230F00C029
:1014A00000C0409302012795889400C05093020128
:1014B000002C12FF4093020175FD230F279588949D
:1014C00000C000C04093020176FD230F00C050937E
:1014D0000201002C11FF409302012795889477FDAB
:1014E000230F00C000C0409302012795889400C0DC
:1014F00050930201002C10FF40930201132F711131
:10150000122F9B0D00C000C04093020100C000C01C
:1015100050930201002C17FF4093020132812227D1
:10152000889400C000C04093020131113C0D00C0FE
:1015300050930201002C16FF4093020108F43FEF84
:10154000ED0DF11D00C000C040930201F0FC230F1F
:1015500000C050930201002C15FF40930201279513
:101560008894F1FC230F00C000C04093020127952E
:10157000889400C050930201002C14FF4093020194
:10158000F2FC230F2795889400C000C0409302010D
:10159000F3FC230F00C050930201002C13FF409373
:1015A000020127958894F4FC230F00C000C04093EB
:1015B00002012795889400C050930201002C12FF6D
:1015C00040930201F5FC230F2795889400C000C0CA
:1015D00040930201F6FC230F00C050930201002C3F
:1015E00011FF4093020127958894F7FC230F00C058
:1015F00000C0409302012795889400C050930201D7
:10160000002C10FF40930201132FF110122FC194F0
:1016100000C000C040930201CA0C00C0002C5093CF
:101620000201002C17FF4093020131812227889488
:1016300000C000C0409302013111380F00C0509328
:101640000201002C16FF4093020108F43FEF819540
:10165000889400C000C04093020160FD230F00C0C9
:1016600050930201002C15FF4093020127958894A6
:1016700061FD230F00C000C04093020127958894AC
:1016800000C050930201002C14FF4093020162FD40
:10169000230F2795889400C000C04093020163FD8A
:1016A000230F00C050930201002C13FF409302014E
:1016B0002795889464FD230F00C000C04093020169
:1016C0002795889400C050930201002C12FF40938C
:1016D000020165FD230F2795889400C000C0409348
:1016E000020166FD230F00C050930201002C11FF80
:1016F000409302012795889467FD230F00C000C026
:10170000409302012795889400C050930201002C59
:1017100010FF40930201132F6111122F8E0D00C094
:1017200000C040930201119709F06CCE4A815B81A1
:1017300020EE31E0DA010E946D28DC01CB01F4E0FB
:10174000B695A79597958795FA95D1F730E020E063
:10175000B901EAE94E9F040E611D5E9F600D711D87
:101760001124650F711D860F971FA11DB11D893EA4
:1017700043E09407A105B10508F434C0885E9340A6
:10178000A109B10942E0B695A795979587954A9525
:10179000D1F747E0849F080E211D949F200D311D35
:1017A0001124290F311D6091040370E0860F971FEB
:1017B000820F931F40910703509108036091090322
:1017C00070910A03292F3327420F531F611D711D8A
:1017D00040930703509308036093090370930A032F
:1017E00080930403789475D8F301708B6787DF9139
:1017F000CF911F910F91FF90EF90DF90CF90BF900E
:10180000AF909F908F907F906F900895E1E0F1E00E
:1018100080818860808308950F931F93CF93DF9317
:10182000CDB7DEB762970FB6F894DEBF0FBECDBF5F
:101830008C01F901DC011C968C917A8369835C83AD
:101840004B835E834D8390819D8791819E8792819A
:101850009F878130E9F4CE0101962CDD83E0888BEF
:101860001A8A198AD801ED91FC910484F585E02D3E
:10187000BE016F5F7F4FC801199562960FB6F8944D
:10188000DEBF0FBECDBFDF91CF911F910F910895A5
:101890001C861B861A86198618861F82DFCF0F9337
:1018A0001F93CF93DF93CDB7DEB762970FB6F8944F
:1018B000DEBF0FBECDBF8C01F901DC011C968C91FF
:1018C0007A8369835C834B835E834D8390819D879C
:1018D00091819E8792819F878130E1F4CE010196AC
:1018E000E9DC188A1A8A198AD801ED91FC910484DE
:1018F000F585E02DBE016F5F7F4FC8011995629697
:101900000FB6F894DEBF0FBECDBFDF91CF911F9110
:101910000F9108951C861B861A86198618861F82C9
:10192000E0CF6F927F928F929F92AF92BF92CF92B1
:10193000DF92EF92FF920F931F93CF93DF93CDB778
:10194000DEB7C858D1090FB6F894DEBF0FBECDBFC1
:101950009E012F5F3F4F790110E0722E6F2C01E046
:1019600088E0E8E1F2E0DE01AF57BF4F01900D9251
:101970008A95E1F780E8E0E2F2E0A72DB62D01902C
:101980000D928A95E1F7CE018F579F4F6C014C0164
:1019900098E0890E911C5701F5016081F2E0AF0ECD
:1019A000B11CF6018081F2E0CF0ED11C0E948F03A2
:1019B000C814D90489F780E00E944C049701285F7D
:1019C0003F4F7901111121C085389340DCF000931D
:1019D0000D061F5F103121F6C857DF4F0FB6F89480
:1019E000DEBF0FBECDBFDF91CF911F910F91FF9052
:1019F000EF90DF90CF90BF90AF909F908F907F90AF
:101A00006F90089510920D06E4CF113049F4853897
:101A100093401CF010930B06DCCF10920B06D9CF2D
:101A2000123009F067C0853893401CF00093DE0542
:101A3000D0CF1092DE05CDCF853893401CF00093B7
:101A4000DD05C7CF1092DD05C4CF853893401CF06B
:101A50000093DC05BECF1092DC05BBCF85389340E8
:101A60001CF00093DB05B5CF1092DB05B2CF8538B3
:101A700093401CF00093D905ACCF1092D905A9CFA3
:101A8000853893401CF00093D805A3CF1092D80559
:101A9000A0CF853893401CF00093BB059ACF1092DD
:101AA000BB0597CF853893401CF000935F0591CF1D
:101AB00010925F058ECF853893401CF000930C0682
:101AC00088CF10920C0685CF8538934024F0009380
:101AD0000A061CE045CF10920A06FBCF85389340DA
:101AE0001CF00093080675CF1092080672CF109272
:101AF000BA056FCF133009F49FCF143009F4A5CF86
:101B0000153009F4ABCF163009F4B1CF173009F412
:101B1000B7CF183009F4BDCF193021F21A3059F27D
:101B20001B3091F21C30D1F21E3009F052CF8538B3
:101B30009340ECF20093BA054CCF88E30E944C042A
:101B400020E030E0A90197FD0DC088E30E944C041D
:101B5000813094405CF588E30E944C049C01990F0D
:101B6000440B550BA9E0BFEF0E945B2520E034E059
:101B700040E050E00E943325BA01A9015F5F6F4F3A
:101B80007F4F80910202909103028417950799F08C
:101B90009A01281B390B2B30310568F05093030252
:101BA0004093020240930F0981E0089520E034E061
:101BB00040E050E0D7CF80E00895CF93DF93CFEFA0
:101BC000D0E0BE010E945228BC01853591054CF53C
:101BD000072E000C880B990B0E94942620E030E021
:101BE0004AEA52E40E94F92520E030E04FE753E44E
:101BF0000E948D270E946126AB01FE01E61BF70BB8
:101C000030E020E050933F0340933E033093410384
:101C100020934003F0934303E0934203DF91CF917D
:101C200008958A3A9105ECF465557109072E000C68
:101C3000880B990B0E94942620E030E04AEA52E497
:101C40000E94F92520E030E04FE753E40E948D2701
:101C50000E9461269B01AE01461B570BF0E0E0E0BD
:101C6000D1CF6A5A7109072E000C880B990B0E947C
:101C7000942620E030E04AEA52E40E94F92520E070
:101C800030E04FE753E40E948D270E946126FB015C
:101C90009E01261B370B50E040E0B4CF1F93CF933B
:101CA000DF934FEB68EC70E08EE096E0A9DA8DE30D
:101CB0000E944C0420E030E0A90197FD0DC08DE3A7
:101CC0000E944C0481309440F4F58DE30E944C0452
:101CD0009C01990F440B550BA7EFBFEF0E945B25AA
:101CE00020E034E040E050E00E943325BA01A90131
:101CF000475F5F4F6F4F7F4F5093100240930F022B
:101D0000DA01AA0FBB1FA40FB51F30E023E0CFEF0D
:101D1000D9E614EB432F50E04A175B07ECF44C591B
:101D20005F4F832F622F0E943228FA01EE0FFF1FB0
:101D3000E40FF51FE25FF94F91110AC01082118282
:101D400012823F5FE7CF20E034E040E050E0C4CFB4
:101D5000C083D1831283F5CFDF91CF911F91089576
:101D60008AE30E944C0420E030E0A90197FD0DC0F9
:101D70008AE30E944C0481309440F4F48AE30E9488
:101D80004C049C01990F440B550BA9E0B0E00E9454
:101D90004F2520E034E040E050E00E943325CA01A6
:101DA000B9010E9494266093040270930502809307
:101DB000060290930702089520E034E040E050E0EE
:101DC000E4CFDF92EF92FF920F931F93CF93DF93B5
:101DD00000D000D0CDB7DEB74BEE68EC70E08EE0FF
:101DE00096E00EDA07E010E0F12C68ECE62EDD2438
:101DF000DA94F982EA82DB82BE016C5F7F4FCE010A
:101E000001960DD847EC50E070E060E0C8010E94F8
:101E1000CB044C819C01220F331FF901E80FF91FFD
:101E2000E25FF94F5081541708F440834D81F90166
:101E3000E80FF91FE25FF94F5181541708F441830D
:101E40004E81280F391FF901E25FF94F8281841713
:101E500008F4428380E2F80E0F5F1F4F0F30110528
:101E600041F626960FB6F894DEBF0FBECDBFDF91C8
:101E7000CF911F910F91FF90EF90DF90089527E091
:101E80004091F70568EC70E08EE096E0D5C90F93BD
:101E90001F93DC01C096FB010591159125913491AA
:101EA0002C9311961C93119712960C9312976C5FBA
:101EB0007F4F1396A817B90771F71F910F910895D7
:101EC00090E080E00895FC01858596850895CF9384
:101ED000DF9300D000D0CDB7DEB7AB011C821D82EE
:101EE0001E82DC01ED91FC910190F081E02D1982C0
:101EF0001A821B829E012F5F3F4FBE016C5F7F4F96
:101F0000199526960FB6F894DEBF0FBECDBFDF91B0
:101F1000CF910895FC01DB013C912081230F08F44F
:101F20002FEF208311963C9111972181230F08F404
:101F30002FEF218312963C912281230F08F42FEF7B
:101F4000228308950F931F93CF93DF9300D000D087
:101F5000CDB7DEB74BEE68EC70E08EE096E050D97E
:101F600047EC50E070E060E08DE090E00E94CB0430
:101F70008C018091F70589838FEF8A8380EC8B83B6
:101F8000BE016C5F7F4FCE0101960E940F07C80112
:101F9000880F991F800F911FBE016C5F7F4F825F7A
:101FA000994FB8DF26960FB6F894DEBF0FBECDBFAF
:101FB000DF91CF911F910F910895CF92DF92EF9211
:101FC000FF921F93CF93DF93EC010E94BF04C88060
:101FD000D980EA80FB80DC01CB018C199D09AE0918
:101FE000BF09CC80DD80EE80FF8011E08C159D055F
:101FF000AE05BF0508F410E08C159D05AE05BF05C4
:1020000010F0CE014CD9812FDF91CF911F91FF901D
:10201000EF90DF90CF900895282F229F020E20E0AE
:10202000211D322F482F349F030E30E0311D43E035
:10203000249FC0011124232F30E0220F331F821B65
:10204000930B90FF02C08FEF90E00895282F86FD3C
:102050002095E22FEF732F7086FD2F5FE695E695B2
:10206000E695E670F0E0E056FD4F9181929F902D4D
:10207000212D112492959F702295207F922B2081F3
:10208000920F87FD919580E8890F0895CF92DF9296
:10209000EF92FF921F93CF93DF93182FD62FC42F69
:1020A0000E94BF046B017C0120E0312FA8E1B1E068
:1020B0000E9481259B01AC01C701B6010E94232823
:1020C000892FC4DF2C2F2D1B382F329F030E30E0B9
:1020D000311D1124832F8D0FDF91CF911F91FF9020
:1020E000EF90DF90CF90089540910002509101024F
:1020F00025E038E0429FC001439F900D529F900D14
:102100001124875E994C9093010280930002890FFD
:1021100008950F931F93CF93DF9300D000D0CDB7D6
:10212000DEB745EF68EC70E08EE096E069D820916C
:1021300000023091010285E098E0289F8001299FEC
:10214000100D389F100D1124075E194C10930102D9
:1021500000930002C9DF20E4829FC0011124809116
:10216000F705890F898388EC8A838FEF8B83BE0103
:102170006C5F7F4FCE0101960E940F079801A8EC7B
:10218000B0E00E948125AA27BB279C01220F331FA4
:10219000820F931FBE016C5F7F4F825F994FBADE43
:1021A00026960FB6F894DEBF0FBECDBFDF91CF915C
:1021B0001F910F910895FC0101900020E9F73197DC
:1021C000AF01481B590BBC0182E798E00C945F02F9
:1021D0000E9473281F920F920FB60F9211240BB614
:1021E0000F922F933F934F935F936F937F938F93B0
:1021F0009F93AF93BF93EF93FF9382E798E00E9482
:10220000D202FF91EF91BF91AF919F918F917F91FA
:102210006F915F914F913F912F910F900BBE0F9057
:102220000FBE0F901F9018951F920F920FB60F922E
:1022300011240BB60F922F938F939F93EF93FF93DD
:10224000E0918208F09183088081E0918808F09104
:10225000890882FD1DC0908180918B088F5F8F73EC
:1022600020918C08821741F0E0918B08F0E0EE5845
:10227000F74F958F80938B08FF91EF919F918F91EE
:102280002F910F900BBE0F900FBE0F901F901895BF
:102290008081F2CF1F920F920FB60F9211242F93CD
:1022A0003F938F939F93AF93BF9380910703909138
:1022B0000803A0910903B0910A033091060323E0BB
:1022C000230F2D3758F50196A11DB11D209306034C
:1022D0008093070390930803A0930903B0930A0324
:1022E00080910B0390910C03A0910D03B0910E030C
:1022F0000196A11DB11D80930B0390930C03A09335
:102300000D03B0930E03BF91AF919F918F913F91B9
:102310002F910F900FBE0F901F90189526E8230F56
:102320000296A11DB11DD2CFE2E7F8E0138212821E
:1023300088EE93E0A0E0B0E084839583A683B78322
:102340008DEE92E09183808385EC90E09587848781
:1023500084EC90E09787868780EC90E0918B808B6F
:1023600081EC90E0938B828B82EC90E0958B848B58
:1023700086EC90E0978B868B118E128E138E148EC6
:10238000EFE0F9E08FEF80831282118214861386CA
:102390008FEF9FEFDC0187839087A187B2876091E1
:1023A00012027091130288EC90E00E945228709300
:1023B0007D0960937C0965EC73E08CE499E067DD4E
:1023C00065E873E08CE199E062CDCF93DF93CDB700
:1023D000DEB7C659D1090FB6F894DEBF0FBECDBF28
:1023E000789484B5826084BD84B5816084BD85B5F0
:1023F000826085BD85B5816085BD80916E008160FC
:1024000080936E00109281008091810082608093A1
:1024100081008091810081608093810080918000A3
:102420008160809380008091B10084608093B100CE
:102430008091B00081608093B000809191008260B3
:1024400080939100809191008160809391008091B0
:1024500090008160809390008091A10082608093C1
:10246000A1008091A10081608093A1008091A000D3
:1024700081608093A000809121018260809321017E
:1024800080912101816080932101809120018160F0
:102490008093200180917A00846080937A008091FB
:1024A0007A00826080937A0080917A0081608093C4
:1024B0007A0080917A00806880937A001092C1003F
:1024C00061E088E00E941B0461E089E00E941B0437
:1024D00061E08AE00E941B0461E08BE00E941B0423
:1024E00080912203811145C01092140310921303AE
:1024F0008FEF8093170380931803809319038093C1
:102500001A0380931B0380931C0381E080931D03B7
:1025100010921F0310921E031092160310921503BF
:1025200080916C0890916D08892B31F481E193E0E2
:1025300090936D0880936C08E0910F03F091100365
:10254000309721F081E193E09583848381E193E0EA
:102550009093100380930F03109221031092200395
:102560008CEB92E0909312038093110381E08093AF
:102570002203809101018860809301018EE096E042
:10258000909314038093130388EC90E090931F03BF
:1025900080931E038091120990911309A091140950
:1025A000B0911509843C09E09007A105B10520F41C
:1025B00084EC99E0A0E0B0E08093120990931309B5
:1025C000A0931409B09315098FEF80930F090E940F
:1025D0002D05E0918208F091830882E08083E091EC
:1025E0007E08F0917F081082E0918008F0918108C8
:1025F00080E1808310928A08E0918608F091870834
:1026000086E08083E0918408F09185088081806174
:102610008083E0918408F0918508808188608083C0
:10262000E0918408F0918508808180688083E09142
:102630008408F091850880818F7D80838BEF92E004
:10264000BADD81E093E0B7DD60E087E30E941B0420
:1026500061E084E00E941B0461E085E00E941B04AD
:1026600060E085E00E948F0361E084E00E948F03B8
:1026700060E087E30E941B0460E088E30E941B0483
:10268000E0E3F5E01192119215E0E835F107D1F79A
:1026900048D930910D0680910C068093110220914B
:1026A0000B0690910A0690930906992309F423C614
:1026B000109208021092090210920A0210920B0264
:1026C00010926405109263051092620510926105E4
:1026D00084E090E09093100280930F0281E090E0FC
:1026E000909313028093120280E090E0A0E0B1E4A6
:1026F0008093040290930502A0930602B093070210
:1027000080910906882311F40C94912480910A0683
:102710008093090606D9E0900D06E092600580914D
:10272000DD05882309F452C01BDB89E30E944C04B9
:1027300020E030E0A90197FD0EC089E30E944C041F
:10274000813094400CF04FC089E30E944C049C01FE
:10275000990F440B550BA5EFBFEF0E945B2520E0BE
:1027600034E040E050E00E94332589019A01065F81
:102770001F4F2F4F3F4FF80188EC90E0B8010E94A7
:102780005228892B29F4C80181709927892B11F0CF
:10279000319721F4109313020093120260911202F8
:1027A0007091130288EC90E00E94522870937D098A
:1027B00060937C0900915F05A5960FAFA597011165
:1027C00017C010920F090E942D059ACF20E030E02B
:1027D00040E051E420930402309305024093060246
:1027E00050930702A2CF20E034E040E050E0B3CFA6
:1027F0008091020280930F09B0900B06B0925E05A3
:1028000061E085E00E948F0360E085E00E948F0315
:102810001DE7C12E15E0D12E10E000E060E084E05D
:102820000E948F0383E790E00197F1F787E30E940E
:102830004C04811524E0920714F08FEF93E097FF8A
:1028400002C090E080E0D6018D939D936D01FD0163
:1028500032974F01BC01990F880B990B0530110578
:102860000CF057C40E94942620E030E040E250E48F
:102870000E94F9250E946126D4016D937C9361E04A
:1028800084E00E948F030F5F1F4F0830110531F65F
:1028900000910F0210911002F801EE0FFF1FE35894
:1028A000FA4FA081B1812FEF30E00E946D282FEF09
:1028B00033E040E050E00E943325F22E0B581A4FCF
:1028C000D8012C93BB2029F160915C0570915D05C6
:1028D000072E000C880B990B0E9494262DEC3CECE3
:1028E0004CE85FE30E948D272B013C016F2D70E0C7
:1028F00090E080E00E9494269B01AC01C301B201EC
:102900000E94442718161CF0B9E0BF1510F0F8011A
:1029100010822091580530915905F901EE0FFF1FE3
:10292000E05DFA4F80915A0590915B05408151819D
:10293000841B950BD801FC900F2D10E011830083B0
:10294000800F911F90935B0580935A052F5F3F4F37
:10295000243131050CF0EBC3309359052093580511
:1029600064E170E00E9452286B0170935D056093F2
:102970005C05EEE2F5E0929182919383828320EAF6
:1029800033E02E173F07B9F780917705982F96957A
:1029900080917905869586959093A1038093A003F5
:1029A000B801012E000C880B990B0E9494262B0174
:1029B0003C01B6010D2C000C880B990B0E9494264B
:1029C00020E030E040E05FE30E948D279B01AC01F6
:1029D000C301B2010E94442718160CF0ADC33AE0BF
:1029E0003F1508F0A9C3B8016C197D09072E000C2A
:1029F000880B990B0E9494262091040230910502C5
:102A000040910602509107020E94F9250E9461261A
:102A10007093640560936305BB2049F065317105CF
:102A200034F044E150E050936405409363056091B5
:102A3000630570916405072E000C880B990B0E94AA
:102A400094269B01AC01609108027091090280916B
:102A50000A0290910B020E949125609308027093E4
:102A6000090280930A0290930B0280916105909174
:102A7000620501968F3F910511F00CF07AC3909397
:102A80006205809361050091580510915905000F6A
:102A9000111F000F111F045B1C4FD8012D913D9198
:102AA0004D915C9160919C0370919D0380919E0378
:102AB00090919F030E9490258090080290900902B7
:102AC000A0900A02B0900B02F80180829182A2824B
:102AD000B382A50194010E94912560939C03709399
:102AE0009D0380939E0390939F0380914A0390914E
:102AF0004B030196843191050CF040C390934B0336
:102B000080934A03E1103FC318D8009161051091EA
:102B10006205C80152D860903E0370903F037092E6
:102B20003D0360923C03209140033091410327967E
:102B30003FAF2EAF279730933B0320933A0340914A
:102B40004203509143032B965FAF4EAF2B975093A8
:102B5000390340933803C80180589F4F2ED8809185
:102B60003E0390913F039093370380933603809107
:102B700040039091410390933503809334038091F7
:102B800042039091430390933303809332038091E7
:102B9000DE0581110CC0109237031092360310929B
:102BA0003503109234031092330310923203809154
:102BB000310391E0892780933103F1100CC010920A
:102BC0004703109246031092490310924803109253
:102BD00045031092440320E030E0A901C501B4018F
:102BE0000E94F52587FF08C0109208021092090282
:102BF00010920A0210920B0220E030E040E05FE306
:102C0000609108027091090280910A0290910B0272
:102C10000E949125609308027093090280930A0232
:102C200090930B020E9461266B0180917C09909128
:102C30007D096D969FAF8EAF6D97C601D7FE04C01C
:102C4000882799278C199D096D966EAD7FAD6D977C
:102C50000E9452286B969FAF8EAF6B9780912F0387
:102C6000909130036B96AEADBFAD6B978A1B9B0BFB
:102C700097FF03C09195819591090D9734F080914C
:102C80002E0391E0892780932E036B96EEADFFAD66
:102C90006B97F0933003E0932F03F0932D03E093B1
:102CA0002C03D0922B03C0922A030F5F1F4F109367
:102CB00062050093610500913603109137032F964A
:102CC0001FAF0EAF2F970091340310913503639619
:102CD0001FAF0EAF639700913203109133036796D5
:102CE0001FAF0EAF67970091120210911302A796C3
:102CF0001FAF0EAFA7972F966EAD7FAD2F976619BA
:102D000077096396AEADBFAD639727960EAD1FAD45
:102D10002797A01BB10B6796EEADFFAD67972B967B
:102D20000EAD1FAD2B97E01BF10BA3012F960EAD3F
:102D30001FAD2F97401B510B27962EAC3FAC27970A
:102D400063960EAD1FAD6397201A310A2B968EAD98
:102D50009FAD2B9767960EAD1FAD6797801B910BAC
:102D6000B0902E03E0906505C0906605F090670571
:102D7000D0906805A090690550906A050EE016E0B5
:102D800069961FAF0EAF6997912C812C2A961FADC3
:102D90002A97A0961FAFA0978B01770F220B330BBA
:102DA000AB960CAF1DAF2EAF3FAFAB978301072C97
:102DB000000C220B330BAF960CAF1DAF2EAF3FAF05
:102DC000AF978D01BB0F220B330BE3960CAF1DAFFA
:102DD0002EAF3FAFE39727960EAD1FAD2797012E7D
:102DE000000C220B330BE7960CAF1DAF2EAF3FAF9D
:102DF000E7978F01FF0F220B330BEB960CAF1DAF44
:102E00002EAF3FAFEB972B960EAD1FAD2B97012E3C
:102E1000000C220B330BEF960CAF1DAF2EAF3FAF64
:102E2000EF978A01550F220B330BC158DF4F0883F0
:102E300019832A833B83CF57D0402F962EAD3FADC9
:102E40002F97032E000C440B550BCD57DF4F2883D3
:102E500039834A835B83C358D0408101330C220BF2
:102E6000330BC957DF4F088319832A833B83C75825
:102E7000D04063962EAD3FAD6397032E000C440BFC
:102E8000550BC557DF4F288339834A835B83CB5863
:102E9000D0408C01990F220B330BC157DF4F0883B1
:102EA00019832A833B83CF58D04067962EAD3FAD20
:102EB0006797032E000C440B550BCD56DF4F28832C
:102EC00039834A835B83C359D04081149104A9F4A8
:102ED000BB2009F485C16696AFAC669767965FAC78
:102EE00067976296FFAC62976396DFAC63972E9606
:102EF000EFAC2E972F96CFAC2F97A7960EAD1FADA8
:102F0000A7970130110509F4D7C101E010E0C8010D
:102F1000880D991D6D966EAD7FAD6D970E945228FC
:102F20006B962EAD3FAD6B972817390709F08EC011
:102F3000B801012E000C880B990B0E9494262DECF1
:102F40003CEC4CE45EE30E948D279B01AC0160E009
:102F500070E080E89FE30E9490251B012C01BB20BC
:102F600009F44DC1C158DF4F688179818A819B8105
:102F7000CF57D0400E949426A20191010E948D2734
:102F80006B017C01CD57DF4F688179818A819B81FC
:102F9000C358D0400E9494269B01AC01C701B601E2
:102FA0000E9491250E946126E62EC72EC957DF4F49
:102FB000688179818A819B81C758D0400E9494267C
:102FC000A20191010E948D27A4966CAF7DAF8EAFB8
:102FD0009FAFA497C557DF4F688179818A819B8114
:102FE000CB58D0400E9494269B01AC01A4966CADB6
:102FF0007DAD8EAD9FADA4970E9491250E94612664
:10300000F62ED72EC157DF4F688179818A819B8147
:10301000CF58D0400E949426A20191010E948D2792
:103020001B012C01CD56DF4F688179818A819B81FC
:10303000C359D0400E9494269B01AC01C201B1014A
:103040000E9491250E946126A62E572E0F5F1F4FCA
:103050000530110509F05BCFC4016D966EAD7FADF3
:103060006D970E9452286B960EAD1FAD6B97081797
:103070001907B9F4B1102FC16696AFAC6697679681
:103080005FAC67976296FFAC62976396DFAC63971D
:103090002E96EFAC2E972F96CFAC2F97A596BFAC60
:1030A000A5976996AEADBFAD6997EC921196FC926B
:1030B00011971296AC92BFEF8B1A9B0A69960EADD0
:1030C0001FAD69970D5F1F4F69961FAF0EAF6997D0
:1030D00018EC8116910409F0F8CEB0922E03E0921C
:1030E0006505C0926605F0926705D0926805A092CA
:1030F000690550926A058091BA0581110E944E0EB1
:103100000E942D056DE070E080E090E00E948E044A
:10311000F7CA0E94942620E030E040E250E40E948A
:10312000F9250E946126F40171836083A8CB109277
:1031300059051092580514CC56E05F15A8F420E00C
:1031400030E0A901609108027091090280910A02A1
:1031500090910B020E9491256093080270930902DE
:1031600080930A0290930B021092640510926305FB
:103170007CCC109262051092610585CC10924B03B5
:1031800010924A03BFCC60915C0570915D05072EDB
:10319000000C880B990B0E9494262DEC3CEC4CE81B
:1031A0005FE30E948D279B01AC01C301B2010E9425
:1031B000442718162CF4FAE0FF1510F410920F09AA
:1031C0008F2D6AE00E9432282091610530916205BE
:1031D000820F932F911D909362058093610595CC8A
:1031E000A096AFACA0972B965FAC2B972696FFAC22
:1031F00026972796DFAC2797E62CC72C7ECEAB967A
:103200006CAD7DAD8EAD9FADAB970E949426A201B3
:1032100091010E948D276B017C01AF966CAD7DAD55
:103220008EAD9FADAF970E9494269B01AC01C70164
:10323000B6010E9491250E946126E62EC72EE396D4
:103240006CAD7DAD8EAD9FADE3970E949426A2013B
:1032500091010E948D27A4966CAF7DAF8EAF9FAF7A
:10326000A497E7966CAD7DAD8EAD9FADE7970E94BC
:1032700094269B01AC01A4966CAD7DAD8EAD9FAD47
:10328000A4970E9491250E946126F62ED72EEB96D8
:103290006CAD7DAD8EAD9FADEB970E949426A201E3
:1032A00091010E948D271B012C01EF966CAD7DAD25
:1032B0008EAD9FADEF97BECEA096AFACA0972B96EC
:1032C0005FAC2B972696FFAC26972796DFAC279707
:1032D000E62CC72CE6CEA096AFACA0972B965FACA1
:1032E0002B972696FFAC26972796DFAC2797E62CE0
:1032F000C72CB12CD6CE332309F49FC080910D0684
:10330000882311F40C9491240E94910C0E949D0D2D
:1033100089E30E944C0420E030E0A90197FD0EC033
:1033200089E30E944C04813094400CF081C089E311
:103330000E944C049C01990F440B550BA1E0BFEF78
:103340000E945B2520E034E040E050E00E943325FD
:1033500049015A018EEF880E911CA11CB11C90925C
:103360006605809265058AE30E944C0420E030E007
:10337000A90197FD11C08AE30E944C0420E034E0CB
:1033800040E050E0813094403CF48AE30E944C04D9
:103390009C01990F440B550BA1E0BFEF0E945B25E8
:1033A00020E034E040E050E00E94332569017A01DA
:1033B000BEEFCB0ED11CE11CF11CD0926805C0926F
:1033C00067058BE30E944C0420E030E0A90197FDE3
:1033D00011C08BE30E944C0420E034E040E050E058
:1033E000813094403CF48BE30E944C049C01990F83
:1033F000440B550BA1E0BFEF0E945B2520E034E0B9
:1034000040E050E00E943325DA01C90182509F4F0D
:10341000AF4FBF4F90936A05809369058982CA8236
:103420008B83CE0101960E9449020E942D0566CF32
:1034300020E034E040E050E081CF222309F460C076
:103440001AE080910B06882311F40C9491240E94B9
:10345000910C0E949D0D89E30E944C0420E030E015
:10346000A90197FD11C089E30E944C0420E034E0DB
:1034700040E050E0813094403CF489E30E944C04E9
:103480009C01990F440B550BA2E3B0E00E944F251D
:1034900020E034E040E050E00E94332530936C059A
:1034A00020936B05809169059091670520916505D2
:1034B00029839A838B83CE0101960E9449020E9440
:1034C0002D0561E070E080E090E00E948E0419829A
:1034D0001A821B82CE0101960E9449020E942D058C
:1034E00080916B0590916C05189FB001199F700D2C
:1034F0001124072E000C880B990B0E948E04A1CF7B
:10350000882311F40C94B42289E090E09093100287
:1035100080930F028E010F5C1F4F25961FAF0EAFD9
:10352000259780911102882311F40C9491240E9414
:10353000910C0E94B00E80910C0680931102809134
:103540000D068093DA0530900B061091DE052A9661
:103550001FAF2A972091DD052E962FAF2E97309121
:10356000DC0562963FAF62974091DB0566964FAFF0
:1035700066975091D90568965FAF68978091D80596
:103580006A968FAF6A970E949D0D8091D005811138
:1035900013C088EC95E00E944F090AE010E020E09B
:1035A00030E00093CC051093CD052093CE053093E9
:1035B000CF0581E08093D00588EC95E00E94DD0F77
:1035C000882331F1ECE4F9E0ACE1B9E080E09081EE
:1035D0002D91921789F0921718F49F5F90838F5F57
:1035E0009081291738F43FEF390F8F5F231708F4C4
:1035F00099C43083883128F4319619E0AC34B1078E
:1036000031F74EEF68EC70E08EE096E00E94000922
:103610008091C005811115C00E94BF0428EE33E0DF
:1036200040E050E00E945F253093BD052093BC052B
:1036300085E090E09093BF058093BE0581E0809384
:10364000C0050E94BF0428EE33E040E050E00E9435
:103650005F258091BC059091BD05281B390B809199
:10366000BE059091BF052817390708F48CC00E9449
:10367000BF0428EE33E040E050E00E945F25309325
:10368000BD052093BC050E9474101FE7819FC001F7
:10369000112440E8742E790E0E947410682E8FABAE
:1036A000FF24FA94F8AE79AE0E947410819FC00195
:1036B000112450E8E52EE90E0E947410A82E8AAF5E
:1036C00060ECB62EBBAEECAE0E947410819FC001C0
:1036D000112470E8972E990E0E947410882E8DAFD9
:1036E000FEAE9FAE0E947410819FC001112410E8AD
:1036F000190F0E94741021968FAF21972296FFAE6A
:10370000229723961FAF23978CAAFDAA9EAA89AB66
:10371000FAAA1BAB8E010C5C1F4F25E030E0AE0116
:103720004F5C5F4F70E060E0CE0101966C010E943B
:10373000C207ACAABDAAEEAA89AAFAAA9BAA2AE045
:1037400030E0AE014F5C5F4F65E070E0C6010E9463
:10375000C2076CAAFDAA7EAAA9AABAAAEBAA2FE060
:1037600030E0AE014F5C5F4F6AE070E0C6010E943E
:10377000C2079CE1C91699E0D90609F008F4D5C33F
:10378000C6010E94360261E085E00E948F0360E07E
:1037900085E00E948F0310928E0510928D050DE733
:1037A00015E025E7C22E25E0D22EF12CE12C33E7DF
:1037B000A32EB12C60E084E00E948F03C501019725
:1037C000F1F787E30E944C048115B4E09B0714F0E5
:1037D0008FEF93E097FF02C090E080E0F8019183C3
:1037E0008083BC01990F880B990BF5E0EF16F1046B
:1037F0000CF0B1C30E94942620E030E040E250E497
:103800000E94F9250E946126D8016D937C9361E0A6
:1038100084E00E948F03F801A191B1918F012FEFF5
:1038200030E00E946D282FEF33E040E050E00E942E
:103830003325D6012D936D0160918D0570918E0514
:10384000620F711D70938E0560938D05BFEFEB1AAB
:10385000FB0AE8E0EE16F10409F0ACCF072E000CED
:10386000880B990B0E9494260E944D2720E030E09F
:1038700048EC52E40E948D270E9461268B017093D0
:103880008E0560938D05E0900F02F0901002F70115
:10389000EE0FFF1FE358FA4FA081B1812FEF30E008
:1038A0000E946D282FEF33E040E050E00E94332566
:1038B000F701EB58FA4F2083F9E0EF16F10421F0FD
:1038C000022F10E0000F111FB801110F880B990B88
:1038D0000E9494266B017C0120E030E048EF51E427
:1038E00060917105709172058091730590917405D6
:1038F0000E948D27A70196010E94912520E030E0CB
:1039000040E05DE30E948D279B01AC01209371058F
:10391000309372054093730550937405C701B60147
:103920000E9490250E9461268B0177FF04C000272A
:103930001127061B170B083011050CF417C38091D3
:10394000960590919705080F191F17FF02C00F5F8A
:103950001F4F159507951093970500939605B8018D
:10396000012E000C880B990B0E9494266B017C01A0
:1039700020E030E048EF51E46091B5057091B60564
:103980008091B7059091B8050E948D27A7019601F7
:103990000E94912520E030E040E05DE30E948D2709
:1039A0002B013C014092B5055092B6056092B705D7
:1039B0007092B80520E030E040E351E40E94912588
:1039C0009B01AC01C701B6010E94442718160CF5F3
:1039D0000E94BF04AB01BC0180916D0590916E0502
:1039E000A0916F05B0917005C296A11DB11D8417FD
:1039F0009507A607B70768F481E08093B9050E9490
:103A0000BF0460936D0570936E0580936F0590936E
:103A1000700520E030E040E85FE3C301B2010E949E
:103A2000F5256CE370E087FD0AC0A301920160E018
:103A300070E080E792E40E94F9250E946126609F71
:103A4000C001619F900D709F900D11248F3F9105D3
:103A500011F00CF08EC29093B0058093AF05809169
:103A6000DA05882399F180918F0590919005019650
:103A700068EC70E00E943E289093900580938F053B
:103A80004091AF0510E000E0242F6CE479E0CE0116
:103A900001960E948F080E94BF0427EC30E040E0AE
:103AA00050E00E945F25AB01BC014F5F5F4F6F4F3D
:103AB0007F4FFA01EE0FFF1FE40FF51FE25FF94F92
:103AC000898180838A8181838B818283332009F479
:103AD000A2C044E06CEF86E090E00E944610809027
:103AE000930590909405880E911C90929405809275
:103AF000930544E06CEF87E090E00E944610E09070
:103B00009105F09092058E0D9F2D911D9093920539
:103B1000809391057EE0C72E76E0D72EE0E4EE2E6E
:103B2000E80EF6E62F2EF8E03F2E882D87FC8095D4
:103B3000880F0E940C10F82EF694AF2CB12C8E2D0D
:103B40000E942610982E9694A90CB11C20E030E01B
:103B500040E850E4C301B2010E948D2729966CAF62
:103B60007DAF8EAF9FAF2997B50190E080E00E94B6
:103B700092266F966CAF7DAF8EAF9FAF6F972996F1
:103B80002CAD3DAD4EAD5FAD299760E070E08FE7A5
:103B900093E4C6D79B01AC016F966CAD7DAD8EAD45
:103BA0009FAD6F970E94442720E0181694F40FEF02
:103BB000A01AB108B50190E080E00E9492262996F3
:103BC0002CAD3DAD4EAD5FAD2997AAD70E946626BC
:103BD000262F4F2D490D10E000E06CE479E0CE0176
:103BE00001960E948F08BE016F5F7F4FC6010E9441
:103BF0008A0F18E0810E23E0C20ED11C3AE0E30EDA
:103C00002C143D0409F091CF4FEB68EC70E08EE08E
:103C100096E00E9400092A964FAD2A97442389F125
:103C20008091B905882329F01092B9058FEF809310
:103C30000C024FEB68EC70E08EE096E00E94000909
:103C400090900C02992009F497C150E19516C9F0A3
:103C50008FEF9812B3C1B2D628EC30E040E050E0CC
:103C600002D770939905609398058091960590917D
:103C700097056FEF70E00E9452288093950510928F
:103C80000C022E96AFAD2E97AA2309F48AC04EEFF0
:103C900068EC70E08EE096E00E940009D090AF05DD
:103CA0000E94BF04AB01BC01E2E076956795579591
:103CB0004795EA95D1F710E000E02D2D6CE479E00E
:103CC000CE0101960E948F08E0900D02F0900E0246
:103CD00047EC50E070E060E0C7010E94CB049C011B
:103CE000220F331F820F931FBE016F5F7F4F825FD2
:103CF000994F0E948A0F0E94BF04AB01BC01A2E051
:103D00007695679557954795AA95D1F72D2D6CE433
:103D100079E0CE0101960E948F0847EC50E070E0F8
:103D200060E0C70103970E94CB049C01220F331F60
:103D3000820F931FBE016F5F7F4F825F994F0E947A
:103D40008A0F8091A205811113C08AE995E00E9433
:103D50004F090AEF10E020E030E000939E05109339
:103D60009F052093A0053093A10581E08093A205D3
:103D70008AE995E00E94DD0F882399F020E030E089
:103D800040E05FE36091B5057091B6058091B7059D
:103D90009091B8050E948D2794D770930E0260937E
:103DA0000D0262961FAD6297112309F4AEC14090D7
:103DB000B5055090B6056090B7057090B80520E045
:103DC00030E0A901C301B20110D7F12C87FD10C06A
:103DD00020E030E046EC52E4C301B2010E944427E7
:103DE00053E6F52E181624F0C301B2016FD7F62E54
:103DF0004FE568EC70E08EE096E00E9400094AE32F
:103E0000242E47E0342E27963FAE2EAE2797D12C96
:103E1000C12C4F2D50E02F965FAF4EAF2F972F96AE
:103E20008EAD9FAD2F97C816D9060CF01EC1B601F6
:103E30000D2C000C880B990B77D7A30192010E94DF
:103E40008D274B015C010E94BF042D966CAF7DAFA6
:103E50008EAF9FAF2D97A5019401C501B40161D626
:103E600020E030E44CE955E45CD630D765966CAF81
:103E70007DAF8EAF9FAF65972D966CAD7DAD8EAD4E
:103E80009FAD2D974FD7A50194014BD61FD7CB01DE
:103E900063966EAD7FAD63970E944E06805C082FDF
:103EA000000F08F40FEFE02EA3019201C301B2014D
:103EB00038D60CD7B62E10E000E0262F4E2D6CE43D
:103EC00079E0CE0101960E948F088981D1018C93FF
:103ED0008A8111968C9311978B8112968C932B2D3E
:103EE0004E2D6CE479E0CE0101960E948F08898105
:103EF0002796EEADFFAD279780838A8181838B81E2
:103F00008283FFEFCF1ADF0A03E0201A31082796D9
:103F10002EAD3FAD27972D5F3F4F27963FAF2EAF7A
:103F200027977DCF9250908365CB80E390E02CE47F
:103F300039E02596AEADBFAD2597FD01D90180FFD3
:103F400005C002C002900E9202900E928250D0F7ED
:103F50009040C0F718CCE8D620E030E040E250E4D2
:103F600048D6AFD6F8017183608351CC10E000E0F1
:103F7000F2CC8FEF90E06FCD0E94BF044091950589
:103F8000460F10E000E02FEF6CE479E0CE010196DF
:103F90000E948F082091980530919905C901880FDA
:103FA000991F820F931FBE016F5F7F4F825F994FF2
:103FB0000E948A0F81E080930C0263CEC92C092CE9
:103FC000000CDD088FEF90E0B6010E945228762E9B
:103FD000770C0E94BF0480909505482D460F10E095
:103FE00000E0272D6CE479E0CE0101960E948F0855
:103FF000E0909805F090990598ECE90EF11CC60147
:104000008E0D9F1D28ECA22EB12CB5010E943E28DA
:104010009C01220F331F820F931FBE016F5F7F4FE2
:10402000825F994F0E948A0F0E94BF04482D460F5D
:10403000272D6CE479E0CE0101960E948F08C7011C
:104040008C199D09B5010E943E289C01220F331F47
:10405000820F931FBE016F5F7F4F825F994F0E9457
:104060008A0F939490920C020CCE2091AC05C090D4
:10407000AA05D090AB05F21608F4E7C1F092AC05A2
:10408000E090AC05EE20C1F10E94BF04462F01E094
:1040900010E02FEF6CE479E0CE0101960E948F08CA
:1040A000F12C84E690E08E199F09FC01EE0FFF1FB2
:1040B000E80FF91FE25FF94F898180838A8181834C
:1040C0008B8182830E94BF04462F2FEF6CE479E03E
:1040D000CE0101960E948F0834E6E30EF11CF70131
:1040E000EE0FFF1FEE0DFF1DE25FF94F8981808308
:1040F0008A8181838B818283C601019665E070E0AD
:10410000D1D79093AB058093AA0566964FAD66977D
:10411000442309F453C0BEE0EB2EB6E0FB2E16E6B6
:10412000A12E18E0B12ED12C88248A94912C609174
:10413000B5057091B6058091B7059091B8059B01C2
:10414000AC01EFD42B013C0142E350E06CEE7FEF79
:104150008DE090E00E94CB048D0D0E942610682F08
:1041600070E090E080E0E0D5A3019201DAD4A9D517
:104170002B01449CC001459C900D900D1124B4016D
:1041800091D7262F10E000E0442D6CE479E0CE01B9
:1041900001960E948F088981D7018C938A8111969C
:1041A0008C9311978B8112968C93B4E0DB0EE3E035
:1041B000EE0EF11CAE14BF0409F0B9CF6896FFAD46
:1041C0006897FF2309F46CC0A090AF05A09420E08D
:1041D00030E040EC50E46091B5057091B6058091F7
:1041E000B7059091B80505D56B017C014AE050E018
:1041F00066EF7FEF84E190E00E94CB04BC0190E089
:1042000080E090D5A70196018CD46B017C01609170
:10421000AD057091AE05072E000C880B990B84D567
:104220009B01AC01C701B6017CD44BD56093AD05B1
:104230007093AE05B62EFEE0EF2EF6E0FF2EA6E65A
:10424000CA2EA8E0DA2E8B2DB7FC8095880F0E942D
:104250000C109A2CA81608F0912C0E94BF04AB01F8
:10426000BC01769567955795479510E000E0292D9C
:104270006CE479E0CE0101960E948F088981D70114
:104280008C938A8111968C9311978B8112968C93C3
:10429000B4E1BB0EE3E0EE0EF11CCE14DF0499F6A0
:1042A0006A96FFAD6A97FF2309F421C120E030E050
:1042B00048E453E46091B5057091B6058091B70567
:1042C0009091B805E1D5181664F480E090E0A8E478
:1042D000B3E48093B5059093B605A093B705B0936A
:1042E000B8050091B5051091B6052091B70530913C
:1042F000B8052D960CAF1DAF2EAF3FAF2D9720E028
:1043000030E040E05FE32D966CAD7DAD8EAD9FADAE
:104310002D9703D66B017C01AC019B0160E070E03E
:1043200088E493E4FDD320E030E040E05FE3F5D59E
:10433000C8D44B0127967FAF6EAF279720E030E0BF
:1043400048E453E4C701B601ECD320E030E040E09C
:104350005FE3E3D56B017C011401220C331C280CB4
:10436000391C9101225F394F190127964EAD5FAD7F
:104370002797BA01550F880B990BD6D42B013C0116
:104380008090B1059090B205A090B305B090B405AF
:10439000A70196012AD487FF63C0A30192012D963D
:1043A0006CAD7DAD8EAD9FAD2D97B7D520E030E0E3
:1043B00040E051E4B2D52B013C01B501BB0C880BA8
:1043C000990BB2D4A3019201ACD380D461966CAFA7
:1043D0007DAF8EAF9FAF6197B401990C880B990B9D
:1043E000A3D4A30192019DD371D4CB012F966EADBE
:1043F0007FAD2F970E944E06805C482F440F08F433
:104400004FEF8091AF05282F220F280F01E010E019
:104410006CE479E0CE0101960E948F088981D10178
:104420008C938A8111968C9311978B8112968C9321
:104430002796EEADFFAD279731962796FFAFEEAFEB
:104440002797F3E02F0E311C90CFC60165E070E096
:1044500029D6892B09F014CE21502093AC0510CE1B
:1044600043E060E085E090E00E944610880D992DC1
:10447000911D9093B2058093B10543E060E084E024
:1044800090E00E9446108A0D9B2D911D9093B405DB
:104490008093B305A0E6B8E0EEE0F6E087E397E0AE
:1044A0002C9113962C93139711962C911197149687
:1044B0002C93149712962C91129715962C9315976E
:1044C00013978A179B0761F78AE397E0238120837C
:1044D000248121832581228333968E179F07B1F78C
:1044E0004FEB62E070E087E397E00E940009809163
:1044F000BB05882381F14FEF60E081E190E00E94ED
:104500004610E82E8091B9058823F1F01092B90584
:104510000E94741038ECF32E8F9D800111240E94AC
:104520007410F11AF89EB0011124012F1127C8014F
:10453000880F991F800F911F28E04E2D672F70E084
:10454000825F994F0E941C0947ED68EC70E08EE095
:1045500096E00E9400098091BA0581110E944E0EDA
:104560000E942D050C94911A80910806882309F465
:10457000CFC128EEC22E23E0D22E809108068823D8
:1045800009F4CFC10E94910C0E949D0D89E30E9405
:104590004C04812C912C540197FD0EC089E30E949C
:1045A0004C04813094400CF016C189E30E944C0405
:1045B0004C01990FAA08BB0880910006811113C015
:1045C00088EF95E00E944F0924E130E040E050E0A0
:1045D0002093FC053093FD054093FE055093FF05A5
:1045E00081E08093000688EF95E00E94DD0F88232C
:1045F00009F1A7EFBFEFA50194015DD220E034E0FF
:1046000040E050E030D2CA01B901685F7F4F8F4F60
:104610009F4F8AD34B015C016091F70570E090E0F9
:1046200080E082D39B01AC01C501B4017AD24ED3A4
:104630006093F705FF24F39480910D06882309F415
:10464000FDC00E94910C8AE30E944C0420E030E0FF
:10465000A90197FD0EC08AE30E944C04813094406A
:104660000CF0BFC08AE30E944C049C01990F440BDC
:10467000550BACE9BFEF1FD220E034E040E050E042
:10468000F2D149015A01DA01C9018C599F4FAF4F4C
:10469000BF4F9093F6058093F505B7FFA7C06DE275
:1046A00082E798E00E94F4022CE93FEF4FEF5FEFC2
:1046B000281939094A095B0919A28E010F5D1F4F9C
:1046C000CA01B9012AE030E040E050E0F8D1605D75
:1046D000D8016E938D01211531054105510581F7F2
:1046E0000115110519F0C8010E94DB106AE082E78C
:1046F00098E00E94F4028091ED05811112C085EED0
:1047000095E00E944F0904E110E020E030E00093C2
:10471000E9051093EA052093EB053093EC05F09240
:10472000ED0585EE95E00E94DD0F882329F080914C
:10473000F7058E5F8093F7050E94BF040091E105A5
:104740001091E2052091E3053091E405AB01BC0135
:10475000401B510B620B730B2091F5053091F60550
:104760002C9DC0012D9D900D3C9D900D1124092E76
:10477000000CAA0BBB0B84179507A607B707A0F47C
:104780000091DF051091E0050E94BF046093E105F0
:104790007093E2058093E3059093E4050F5F1F4F4C
:1047A0001093E0050093DF058091DF059091E0050F
:1047B000049724F01092E0051092DF058091DF0548
:1047C0009091E0058130910599F13CF5892B69F1D3
:1047D0000E942D0531CF812C94E0992EA12CB12C73
:1047E000EBCE20E034E040E050E043CF9C01AD014F
:1047F00019A28E010F5D1F4FCA01B9012AE030E0F6
:1048000040E050E05CD1605DF80162938F012115BA
:1048100031054105510581F763CF8230910559F08B
:104820000397B1F60E94E10ED3CF0E943F0FD0CF85
:104830000E948910CDCF0E94A20FCACF80910B0693
:1048400081110E943F0F8091DE0581110E94891025
:104850008091DD0581110E94A20F8091DC058823E3
:10486000C1F165E473E0CE0101960E94470F4FEF5E
:1048700060E48EE390E00E944610982E8EE0E82ED1
:1048800086E0F82EB12CA12C4091F705292D241B90
:104890002A0D4B0D01E010E0BE016F5F7F4FCE018E
:1048A000C1960E948F0889A9D7018C938AA9119675
:1048B0008C9311978BA912968C93BAE0AB0EB3949C
:1048C000B394E3E0EE0EF11CF6E6EF16F8E0FF0617
:1048D000D9F68091DB0581110E94E10E0E942D0521
:1048E0000E94BF044B015C0161E070E080E090E059
:1048F0000E948E040E942D050E94BF046819790948
:104900008A099B09683071058105910568F335CEE8
:1049100019821A821B82CE0101960E9449020E94CE
:104920002D050E945F030C9448138F929F92AF92C3
:10493000BF92CF92DF92EF92FF92CF93DF93EC0181
:10494000688179818A819B81611571058105910555
:1049500021F464E279ED8BE597E02DE133EF41E05E
:1049600050E081D049015A019B01AC01A7EAB1E4B2
:1049700096D06B017C01ACEEB4EFA50194019BD005
:10498000C60ED71EE81EF91EF7FE06C081E0C81A43
:10499000D108E10880E8F80AC882D982EA82FB825D
:1049A000C701B6019F77DF91CF91FF90EF90DF9025
:1049B000CF90BF90AF909F908F9008958F929F92CD
:1049C000AF92BF92CF92DF92EF92FF92609114026A
:1049D0007091150280911602909117026115710570
:1049E0008105910521F464E279ED8BE597E02DE1F5
:1049F00033EF41E050E037D049015A019B01AC014F
:104A0000A7EAB1E44CD06B017C01ACEEB4EFA50198
:104A1000940151D0C60ED71EE81EF91EF7FE06C03F
:104A200081E0C81AD108E10880E8F80AC0921402AF
:104A3000D0921502E0921602F0921702C701B60159
:104A40009F77FF90EF90DF90CF90BF90AF909F90B7
:104A50008F9008956093140270931502809316024C
:104A6000909317020895052E97FB16F400940FD02B
:104A700057FD05D024D007FC02D046F408C050955D
:104A80004095309521953F4F4F4F5F4F089590953A
:104A90008095709561957F4F8F4F9F4F089531D0CE
:104AA000A59F900DB49F900DA49F800D911D112482
:104AB0000895B7FFF4CFF3DF821B930B0895A1E2B3
:104AC0001A2EAA1BBB1BFD010DC0AA1FBB1FEE1F88
:104AD000FF1FA217B307E407F50720F0A21BB30BD3
:104AE000E40BF50B661F771F881F991F1A9469F74F
:104AF00060957095809590959B01AC01BD01CF01AB
:104B00000895A29FB001B39FC001A39F700D811DA6
:104B10001124911DB29F700D811D1124911D0895C6
:104B20005058BB27AA270ED075C166D130F06BD183
:104B300020F031F49F3F11F41EF45BC10EF4E095B8
:104B4000E7FB51C1E92F77D180F3BA1762077307EA
:104B50008407950718F071F49EF58FC10EF4E09567
:104B60000B2EBA2FA02D0B01B90190010C01CA0127
:104B7000A0011124FF27591B99F0593F50F4503ED2
:104B800068F11A16F040A22F232F342F4427585FC4
:104B9000F3CF469537952795A795F0405395C9F7DC
:104BA0007EF41F16BA0B620B730B840BBAF0915094
:104BB000A1F0FF0FBB1F661F771F881FC2F70EC033
:104BC000BA0F621F731F841F48F487957795679506
:104BD000B795F7959E3F08F0B3CF9395880F08F0EF
:104BE0009927EE0F979587950895D9D008F481E01D
:104BF00008950CD00FC107D140F0FED030F021F461
:104C00005F3F19F0F0C0511139C1F3C014D198F3CE
:104C10009923C9F35523B1F3951B550BBB27AA273D
:104C200062177307840738F09F5F5F4F220F331FAF
:104C3000441FAA1FA9F333D00E2E3AF0E0E830D07B
:104C400091505040E695001CCAF729D0FE2F27D07E
:104C5000660F771F881FBB1F261737074807AB074C
:104C6000B0E809F0BB0B802DBF01FF2793585F4FC1
:104C70002AF09E3F510568F0B6C000C15F3FECF3DB
:104C8000983EDCF3869577956795B795F7959F5F86
:104C9000C9F7880F911D9695879597F90895E1E0DA
:104CA000660F771F881FBB1F621773078407BA0739
:104CB00020F0621B730B840BBA0BEE1F88F7E09594
:104CC000089504D06894B111D9C00895BCD088F07B
:104CD0009F5790F0B92F9927B751A0F0D1F0660FE8
:104CE000771F881F991F1AF0BA95C9F712C0B13003
:104CF00081F0C3D0B1E00895C0C0672F782F882716
:104D0000B85F39F0B93FCCF3869577956795B39541
:104D1000D9F73EF490958095709561957F4F8F4FB0
:104D20009F4F0895E89409C097FB3EF490958095B5
:104D3000709561957F4F8F4F9F4F9923A9F0F92F61
:104D400096E9BB279395F695879577956795B795DF
:104D5000F111F8CFFAF4BB0F11F460FF1BC06F5FC5
:104D60007F4F8F4F9F4F16C0882311F096E911C0D7
:104D7000772321F09EE8872F762F05C0662371F0F8
:104D800096E8862F70E060E02AF09A95660F771F0C
:104D9000881FDAF7880F9695879597F90895990FE8
:104DA0000008550FAA0BE0E8FEEF16161706E807F5
:104DB000F907C0F012161306E407F50798F0621B16
:104DC000730B840B950B39F40A2661F0232B242BEB
:104DD000252B21F408950A2609F4A140A6958FEF0A
:104DE000811D811D089597F99F6780E870E060E05C
:104DF00008959FEF80EC089500240A941616170674
:104E000018060906089500240A94121613061406BB
:104E100005060895092E0394000C11F4882352F01E
:104E2000BB0F40F4BF2B11F460FF04C06F5F7F4FD6
:104E30008F4F9F4F089557FD9058440F551F59F0BD
:104E40005F3F71F04795880F97FB991F61F09F3F77
:104E500079F087950895121613061406551FF2CFA0
:104E60004695F1DF08C0161617061806991FF1CFF0
:104E700086957105610508940895E894BB27662717
:104E80007727CB0197F908958ADF08F48FEF08950B
:104E90000EF0A6C0AECF6894A6CFD5DFC8F3992395
:104EA000D1F3C6F3DF93CF931F930F93FF92C92FD4
:104EB000DD2788232AF02197660F771F881FDAF7EE
:104EC00020E030E040E85FEB9FE3883920F0803E4F
:104ED00030F021968F7725DEE4EEF0E003C021DE8E
:104EE000E1E1F1E08BD08B01BE01EC01FB2E6F57AD
:104EF00071097595771F880B990B16DF28E132E74A
:104F000041E35FE316D0AF2D9801AE01FF900F9102
:104F10001F91CF91DF9116DE7DCF0BD07BCF6CDF61
:104F200028F071DF18F0952309F05DCF62CF1124CE
:104F3000A5CF81DFA0F3959FD1F3950F50E0551FCA
:104F4000629FF001729FBB27F00DB11D639FAA27DE
:104F5000F00DB11DAA1F649F6627B00DA11D661F2D
:104F6000829F2227B00DA11D621F739FB00DA11D4E
:104F7000621F839FA00D611D221F749F3327A00D08
:104F8000611D231F849F600D211D822F762F6A2FA4
:104F900011249F5750408AF0E1F088234AF0EE0F29
:104FA000FF1FBB1F661F771F881F91505040A9F736
:104FB0009E3F510570F017CF61CF5F3FECF3983EF5
:104FC000DCF3869577956795B795F795E7959F5F9D
:104FD000C1F7FE2B880F911D9695879597F9089537
:104FE0009F3F31F0915020F4879577956795B7955D
:104FF000880F911D9695879597F90895DF93CF9324
:105000001F930F93FF92EF92DF927B018C016894C4
:1050100005C0DA2EEF018DDFFE01E894A591259100
:10502000359145915591AEF3EF018CDDFE0197016D
:10503000A801DA9479F7DF90EF90FF900F911F911C
:10504000CF91DF910895DB018F939F9328DDBF916E
:10505000AF91A29F800D911DA39F900DB29F900DC7
:1050600011240895991B79E004C0991F961708F040
:10507000961B881F7A95C9F780950895AA1BBB1BBC
:1050800051E107C0AA1FBB1FA617B70710F0A61B48
:10509000B70B881F991F5A95A9F780959095BC0169
:1050A000CD01089597FB072E16F4009406D077FDE6
:1050B00008D0E4DF07FC05D03EF4909581959F4F22
:1050C0000895709561957F4F0895EE0FFF1F881F1B
:1050D0008BBF0790F691E02D199413DDB7FF08956B
:1050E000821B930B089581E090E0F89400C0F8943F
:0250F000FFCFF0
:1050F2003905FF000000004100001442FF140004C3
:105102000001020001000000080009000A000B0073
:10511200000000000000000001000000000000008C
:10512200000001000000000001000100000000007A
:10513200000000000100000001000000010000006A
:105142000000010001000000010001000100000058
:10515200000000000000010001000000000001004A
:105162000000010000000100010001000000010038
:105172000000000001000100010000000100010028
:105182000000010001000100010001000100010016
:10519200003131295A1B750A00000000E810E8109E
:1051A200E810670F630F600F000000004F0C0C0C3B
:1051B200060C670F630F5C02970900003100F918B3
:1051C2003000FB302C001C472600825A1F006D6AFB
:1051D200170041760E00897D0400000000F4025F92
:1051E200028C024003BD029B02AF0253544152544F
:0451F200000D0A00A2
:00000001FF
