:1000000062C1000091C100008FC100008DC10000DD
:100010008BC1000089C1000087C1000085C10000BC
:1000200083C1000081C100007FC100007DC10000CC
:100030007BC1000079C1000077C1000075C10000DC
:1000400073C1000071C100006FC100006DC10000EC
:100050006BC1000069C1000067C100000C94490D2C
:1000600063C100000C94130D0C94E90C5DC10000F9
:100070005BC1000059C1000057C1000055C100001C
:1000800053C1000051C100004FC100004DC100002C
:100090004BC1000049C1000047C1000045C100003C
:1000A00043C1000041C100003FC100003DC100004C
:1000B0003BC1000039C1000037C1000035C100005C
:1000C00033C1000031C100002FC100002DC100006C
:1000D0002BC1000029C1000027C1000025C100007C
:1000E00023C1000008000000BE922449123EABAAC2
:1000F000AA2ABECDCCCC4C3E00000080BEABAAAA42
:10010000AA3E00000000BF000000803F0000000089
:1001100000084178D3BB4387D1133D190E3CC3BDC2
:100120004282AD2B3E68EC8276BED98FE1A93E4C6F
:1001300080EFFFBE01C4FF7F3F0000000000000011
:100140002100240027002A002D0030003300010187
:100150000000040107010A01000022002500280018
:100160002B002E00310034000201000005010801BF
:100170000B0105050505070508080808020202022B
:100180000A0A080804040404010101010101010133
:100190000303030303030303040707070C0C0C0CFE
:1001A0000C0C0C0C020202020606060606060606E7
:1001B0000B0B0B0B0B0B0B0B010210202008081074
:1001C00020401020408002010201080402010102C7
:1001D00004081020408080402010080402018004A0
:1001E00002018040201008040201080402010102FB
:1001F0000408102040800102040810204080000004
:100200000A0B02090C0D0E08070304010000000090
:1002100000000000000000000000000000000000DE
:10022000000000000000000000001211100000009B
:1002300000000000000000000000000000000000BE
:10024000000000000000000000008000000000002E
:100250000000800000008B000000800000008B0088
:1002600000008B0000008B000000FF0000A5FF00D5
:10027000FFFFFF0000A5FF000000FF0000008B0053
:1002800000000000701919008B000000701919009F
:10029000800000008B000000CD000000578B2E0076
:1002A00080800000A09E5F00FF0000008B8B00009C
:1002B000ED956400D4FF7F00578B2E00FFFF0000F8
:1002C000FACE8700AC0D11241FBECFEFD1E2DEBF06
:1002D000CDBF00E00CBF12E0A0E0B2E0E0EFF8E339
:1002E00000E00BBF02C007900D92A83DB107D9F7FF
:1002F00029E0A8EDB2E001C01D92A230B207E1F7FB
:1003000011E0C3E6D1E000E006C021970109802F8B
:10031000FE010E94641CC236D10780E00807A9F7DD
:100320000E94FD0D0C94761C6BCE20E330E040EA79
:1003300058E0FC01DA0120FF05C002C001900D92D7
:1003400001900D922250D0F73040C0F7CA010895B5
:10035000DC01862F82958F706F70E82FEE0FE80F0B
:10036000F0E0E053F74F662319F071E0232B09F416
:1003700070E0508131819281772309F42BC033964C
:100380008F3011F4E0EDF8E06295607F762F709584
:10039000579F050E50E0511D2081269F020E20E040
:1003A000211D520F379F030E30E0311D2181269F02
:1003B000020E20E0211D320F292F279F020E20E080
:1003C000211D9281792F769F070E70E0711D922F6B
:1003D000970F11244F3FC1F04423F9F04F5F55238D
:1003E00021F0549F050E50E0511D332321F0349F1E
:1003F000030E30E0311D992331F0292F249F020E86
:1004000020E0211D922F11245C9311963C931197AB
:1004100012969C931297CD01089590E030E050E041
:10042000F3CF382FE2E9F5E02081239F020E20E090
:10043000211D20832181239F020E20E0211D218385
:100440002281239F020E20E0211D22831124339656
:1004500087E0EA3EF80741F70895DC01E2E9F5E0BC
:100460008C91808311968C911197818312968C9137
:1004700012978283339687E0EA3EF80789F708955A
:100480003F924F925F926F927F928F929F92AF9224
:10049000BF92CF92DF92EF92FF920F931F93CF9371
:1004A000DF9300D000D0CDB7DEB73C017E836D83F3
:1004B000D80126173707D8F411969C9111971296F8
:1004C0008C911297FA01118172816C9100810C93C9
:1004D00011961C93119712967C93129760839183C7
:1004E00082839D818E813E832D83292F382F129602
:1004F000EC9012971196CC901197EE2011F0C1104C
:1005000003C0FA0180818C93FA01828101819C9160
:10051000882311F0011102C0DA019C9310E0D12C64
:10052000C01AD10AD694DC2CCC24D794C794482E78
:10053000512CF12CE418F508F694FE2CEE24F794D7
:10054000E794FA014081941B97FF67C09195792F3A
:100550007695692F679566276795719561957109FD
:100560005901ED81FE81AE1ABF0A19F4AA24A394A1
:10057000B12CCB01B5010E94511C4B01C601B50144
:100580000E94511C6B01C701B5010E94511C880CCF
:10059000991CCC0CDD1CFB01EE0FFF1F50E0542F0B
:1005A0004427102F0027742D66277C836B83AD8131
:1005B000BE81AA0FBB1F8D819E81A80FB91FA60DFA
:1005C000B71D75E5772EE12C8BEAB82E9AEA692ED5
:1005D0006D817E812617370708F4DDC0AC80F12ECF
:1005E000952F990F990F990F792F672D769F070EE9
:1005F00070E0711D1124872F752F7074652F607244
:10060000462E57FD9DC0711185C061110DC0982FF8
:100610009095582E892F90E00CC0792F7695692FF0
:100620006795662767959CCF95E5592E580E90E003
:100630008BEA6FEFF61609F429C0FF2009F4A2C077
:10064000882339F0782F6F2D769F070E70E0711D8B
:10065000872F552039F0752D6F2D769F070E70E08E
:10066000711D572E992339F0792F6F2D769F070E24
:1006700070E0711D972F1124F0947F2D779F070E46
:1006800070E0711D1124870F570E970F6FEFA6169C
:1006900009F427C07E2D6A2D662321F0669F712DF7
:1006A00009F07F5FF72E772309F471C0882331F0BA
:1006B000682F679F060E60E0611D862F552039F078
:1006C000752D6F2D769F070E70E0711D572E9923A3
:1006D00039F0792F6F2D769F070E70E0711D972FDF
:1006E00011248C9311965C92119712969C931297F9
:1006F000480D591D0C0D1D1D8B819C818E0F9F1F58
:100700009C838B836D817E816F5F7F4F7E836D8342
:1007100013965ECF61110FC0792F662D769F070E5D
:1007200070E0711D1124972F7B2D791B972F7AEA8A
:10073000572E580E6FCF582E5094982F80E079CFB7
:10074000711112C061110CC0692F762D679F060EC2
:1007500060E0611D1124962F5B2C561A9B5AEECF38
:10076000982F9095512C65CF611107C065E5562EE5
:10077000580E9B2D981B852DF5CF9AEA592E580EB1
:10078000972DF8CF9FEF55245A948FEF7FCF90E0AD
:10079000512C80E0A6CF26960FB6F894DEBF0FBE90
:1007A000CDBFDF91CF911F910F91FF90EF90DF9020
:1007B000CF90BF90AF909F908F907F906F905F9001
:1007C0004F903F90089580E991E00895AF92BF92D5
:1007D000CF92DF92EF92FF920F931F93CF93DF930D
:1007E0006C017B018B01040F151FEB015E01AE183C
:1007F000BF08C017D10759F06991D601ED91FC915E
:100800000190F081E02DC6011995892B79F7C5017A
:10081000DF91CF911F910F91FF90EF90DF90CF90DC
:10082000BF90AF900895FC01538D448D252F30E08B
:10083000842F90E0821B930B541710F0CF960895ED
:1008400001970895FC01918D828D981761F0A28D1A
:10085000AE0FBF2FB11D5D968C91928D9F5F9F73E0
:10086000928F90E008958FEF9FEF0895FC01918D96
:10087000828D981731F0828DE80FF11D858D90E003
:1008800008958FEF9FEF0895FC01918D228D892FA0
:1008900090E0805C9F4F821B91098F739927089588
:1008A00086EF97E0F1DF21E0892B09F420E0822F29
:1008B0000895FC01A48DA80FB92FB11DA35ABF4FF5
:1008C0002C91848D90E001968F739927848FA6894F
:1008D000B7892C93A089B1898C91837080648C93A3
:1008E000938D848D981306C00288F389E02D808152
:1008F0008F7D80830895EF92FF920F931F93CF9384
:10090000DF93EC0181E0888F9B8D8C8D98131AC04A
:10091000E889F989808185FF15C09FB7F894EE8931
:10092000FF896083E889F98980818370806480838E
:100930009FBF81E090E0DF91CF911F910F91FF90D9
:10094000EF900895F62E0B8D10E00F5F1F4F0F7381
:100950001127E02E8C8D8E110BC00FB607FCFACF3D
:10096000E889F989808185FFF5CFCE01A2DFF2CF3A
:10097000EB8DEC0FFD2FF11DE35AFF4FF0829FB777
:10098000F8940B8FEA89FB8980818062D0CF682F31
:1009900086EF97E0B0CFCF93DF93EC01888D88236B
:1009A000B1F0AA89BB89E889F9898C9185FD03C0DA
:1009B000808186FD0CC00FB607FCF7CF8C9185FFB8
:1009C000F2CF808185FFEDCFCE0173DFEACFDF91DB
:1009D000CF91089580E090E0892B21F061DF8111B3
:1009E0000E94000080E090E0892B49F080E090E0D8
:1009F000892B29F00E94000081110E94000080E0F4
:100A000090E0892B49F080E090E0892B29F00E944A
:100A1000000081110E94000080E090E0892B49F0E5
:100A200080E090E0892B29F00E94000081110C9455
:100A300000000895282F30E0F901E250FE4F949114
:100A4000F901E854FE4F44912E583E4FF90124918C
:100A5000222309F435C0992311F191509231F8F411
:100A6000E92FF0E08827E85CFA4F8F4F0C94641C64
:100A700069056D054A05610565054F057005760533
:100A80007A058005840588058E0592054F05960533
:100A90009C05A005809180008F7780938000E22FD5
:100AA000F0E0EE0FFF1FE85AFE4FA591B4918FB70B
:100AB000F894EC91611148C040954E234C938FBF40
:100AC0000895809180008F7DE8CF80918000877F9E
:100AD000E4CF84B58F7784BDE2CF84B58F7DFBCF23
:100AE0008091B0008F778093B000D9CF8091B00013
:100AF0008F7DF9CF809190008F7780939000CFCF3A
:100B0000809190008F7DF9CF80919000877FF5CF05
:100B10008091A0008F778093A000C1CF8091A0002A
:100B20008F7DF9CF8091A000877FF5CF8091200144
:100B30008F7780932001B3CF809120018F7DF9CFF3
:100B400080912001877FF5CF4E2BB8CFCF93DF93D5
:100B500090E0FC01E854FE4F24918E589E4FFC011A
:100B600084918823D1F090E0880F991FFC01E25C0A
:100B7000FE4FA591B491FC01E85AFE4FC591D49166
:100B800061110EC09FB7F8948C91E22FE0958E23EF
:100B90008C932881E223E8839FBFDF91CF91089552
:100BA0008FB7F894EC91E22BEC938FBFF6CF86339E
:100BB00008F0865320917B00982F9870277F922B06
:100BC00090937B008770806480937C0080917A0092
:100BD000806480937A0080917A0086FDFCCF8091BA
:100BE00078009091790008953FB7F8948091DF02E2
:100BF0009091E002A091E102B091E20226B5A89B9B
:100C000005C02F3F19F00196A11DB11D3FBFBA2F9E
:100C1000A92F982F8827BC01CD01620F711D811D5E
:100C2000911D42E0660F771F881F991F4A95D1F7E3
:100C300008958F929F92AF92BF92CF92DF92EF92E0
:100C4000FF926B017C01D0DF4B015C01C114D10428
:100C5000E104F104B1F0C8DF681979098A099B0938
:100C6000683E73408105910588F321E0C21AD108DE
:100C7000E108F10888EE880E83E0981EA11CB11CE3
:100C8000E5CFFF90EF90DF90CF90BF90AF909F9017
:100C90008F9008952FB7F8946091DB027091DC0279
:100CA0008091DD029091DE022FBF08954F925F92F6
:100CB0006F927F929F92AF92BF92CF92DF92EF920C
:100CC000FF920F931F93CF93DF9300D0CDB7DEB782
:100CD000F09093088091960890919708A0919808B9
:100CE000B0919908892B8A2B8B2BD1F07DDF009155
:100CF000F2071091F3072091F4073091F507601B7C
:100D0000710B820B930B009196081091970820911C
:100D10009808309199086017710782079307D0F2FD
:100D200063DF6093F2077093F3078093F407909367
:100D3000F507E0919E08F0919F08309759F0409197
:100D40009A0850919B0860919C0870919D088F2D86
:100D50001995F82E0091F0071091F1074F2C512CA6
:100D6000712C612C0115110509F45EC0D8011C9687
:100D7000EC901C9780919408909195088436910589
:100D800010F41C961C92D801ED91FC91A280B380C6
:100D900019821A821B82FF2089F1F8013696D12C24
:100DA000C12C2191222319F19280992001F130E088
:100DB00050E040E02F5F3F4F4F4F5F4FC301B20104
:100DC0000E942E1C9B01AC01892D90E0B0E0A0E0B8
:100DD000BC01CD016F5F7F4F8F4F9F4F0E942E1C34
:100DE000A1E0B0E0AC0FBD1FAC0DBD1D8C93BFEFFB
:100DF000CB1ADB0A83E0C816D10499F6D8011D96F8
:100E00004D915C911E9712966D917C919E012F5F82
:100E10003F4FC801F5011995D8011C96EC921C971B
:100E200014960D911C919ECF8091EE079091EF0743
:100E30008C010F5F1F4F1093EF070093EE07499748
:100E4000A4F128DFC090EA07D090EB07E090EC0710
:100E5000F090ED079B01AC012C193D094E095F098B
:100E600021F421E030E040E050E088EE93E0089F7C
:100E7000B001099F700D189F700D1124072E000CF2
:100E8000880B990B0E946E19309395082093940853
:100E90001092EF071092EE07FDDE6093EA07709361
:100EA000EB078093EC079093ED070F900F900F9056
:100EB000DF91CF911F910F91FF90EF90DF90CF9036
:100EC000BF90AF909F907F906F905F904F900895EC
:100ED0000F931F93CF93DF932091D9022F5F322F6F
:100EE00037703093D90220FF2BC020E831FD2064F9
:100EF000347009F02062205FFC01EC01239600E0D1
:100F000011E06485662329F070E0C8010E94511C3D
:100F10006F5F6187322F369F030E30E0311D112441
:100F2000311110C01682662311F06150618731962D
:100F3000EC17FD0731F7DF91CF911F910F910895C5
:100F400020E0D4CF31503683EECF6F927F928F92D4
:100F50009F92AF92BF92CF92DF92EF92FF920F9348
:100F60001F93CF93DF933C01EB013EDEF301278516
:100F70003089621B730B6A307105B8F3F894E8810D
:100F8000F98150910201586040910201477F4093DE
:100F90000201EA848F812E2D281B822F2F83DF846C
:100FA000AA81BB816D857C85FE846F5F7F5FF39432
:100FB0009E813885B984AB84118120E0C32E022F35
:100FC000322F3181112788943111380F08F43FEF07
:100FD0008195889460FD130F1795889461FD130F18
:100FE0001795889462FD130F1795889463FD130F6E
:100FF0001795889464FD130F1795889465FD130F5A
:101000001795889466FD130F1795889467FD130F45
:1010100017958894232F6111212F8E0D122F002CEC
:1010200050930201002C17FF4093020130812227C8
:10103000889400C000C0409302013111390F00C0F4
:1010400050930201002C16FF4093020108F43FEF79
:101050009195889400C000C04093020170FD230F59
:1010600000C050930201002C15FF40930201279508
:10107000889471FD230F00C000C0409302012795A2
:10108000889400C050930201002C14FF4093020189
:1010900072FD230F2795889400C000C04093020181
:1010A00073FD230F00C050930201002C13FF4093E7
:1010B00002012795889474FD230F00C000C040935F
:1010C00002012795889400C050930201002C12FF62
:1010D0004093020175FD230F2795889400C000C03E
:1010E0004093020176FD230F00C050930201002CB3
:1010F00011FF409302012795889477FD230F00C0CC
:1011000000C0409302012795889400C050930201CB
:10111000002C10FF40930201132F7111122F9B0D11
:1011200000C000C04093020100C000C05093020103
:10113000002C17FF4093020132812227889400C0BF
:1011400000C04093020131113C0D00C050930201D8
:10115000002C16FF4093020108F43FEFED0DF11D46
:1011600000C000C040930201F0FC230F00C0509368
:101170000201002C15FF4093020127958894F1FC91
:10118000230F00C000C0409302012795889400C03F
:1011900050930201002C14FF40930201F2FC230F34
:1011A0002795889400C000C040930201F3FC230FF0
:1011B00000C050930201002C13FF409302012795B9
:1011C0008894F4FC230F00C000C0409302012795CF
:1011D000889400C050930201002C12FF409302013A
:1011E000F5FC230F2795889400C000C040930201AE
:1011F000F6FC230F00C050930201002C11FF409316
:10120000020127958894F7FC230F00C000C040938B
:1012100002012795889400C050930201002C10FF12
:1012200040930201132FF110122FC19400C000C08F
:1012300040930201CA0C00C0002C50930201002C04
:1012400017FF4093020131812227889400C000C01B
:10125000409302013111380F00C050930201002C5D
:1012600016FF4093020108F43FEF8195889400C077
:1012700000C04093020160FD230F00C050930201A3
:10128000002C15FF409302012795889461FD230FE0
:1012900000C000C0409302012795889400C050937D
:1012A0000201002C14FF4093020162FD230F2795D9
:1012B000889400C000C04093020163FD230F00C06A
:1012C00050930201002C13FF40930201279588944C
:1012D00064FD230F00C000C040930201279588944D
:1012E00000C050930201002C12FF4093020165FDE3
:1012F000230F2795889400C000C04093020166FD2B
:10130000230F00C050930201002C11FF40930201F3
:101310002795889467FD230F00C000C04093020109
:101320002795889400C050930201002C10FF409331
:101330000201132F6111122F8E0D00C000C04093C7
:101340000201119709F06CCE4A815B8120EE31E0F9
:10135000DA010E946C1CDC01CB01F4E0B695A79584
:1013600097958795FA95D1F730E020E0B901EAE941
:101370004E9F040E611D5E9F600D711D1124650F4F
:10138000711D860F971FA11DB11D893E43E0940773
:10139000A105B10508F434C0885E9340A109B109E4
:1013A00042E0B695A795979587954A95D1F747E07E
:1013B000849F080E211D949F200D311D1124290F9B
:1013C000311D6091D80270E0860F971F820F931F26
:1013D0004091DB025091DC026091DD027091DE02EF
:1013E000292F3327420F531F611D711D4093DB02CC
:1013F0005093DC026093DD027093DE028093D8028A
:101400007894F2DBF301708B6787DF91CF911F91A6
:101410000F91FF90EF90DF90CF90BF90AF909F9093
:101420008F907F906F900895E1E0F1E08081886077
:10143000808308950F931F93CF93DF93CDB7DEB7CB
:1014400062970FB6F894DEBF0FBECDBF8C01F901D5
:10145000DC011C968C917A8369835C834B835E8369
:101460004D8390819D8791819E8792819F87813056
:10147000E9F4CE0101962CDD83E0888B1A8A198A63
:10148000D801ED91FC910484F585E02DBE016F5FDC
:101490007F4FC801199562960FB6F894DEBF0FBE54
:1014A000CDBFDF91CF911F910F9108951C861B86B0
:1014B0001A86198618861F82DFCF0F931F93CF934A
:1014C000DF93CDB7DEB762970FB6F894DEBF0FBEDD
:1014D000CDBF8C01F901DC011C968C917A83698364
:1014E0005C834B835E834D8390819D8791819E8732
:1014F00092819F878130E1F4CE010196E9DC188A60
:101500001A8A198AD801ED91FC910484F585E02DA1
:10151000BE016F5F7F4FC801199562960FB6F894B0
:10152000DEBF0FBECDBFDF91CF911F910F91089508
:101530001C861B861A86198618861F82E0CF6F923A
:101540007F928F929F92AF92BF92CF92DF92EF9253
:10155000FF920F931F93CF93DF93CDB7DEB7C85899
:10156000D1090FB6F894DEBF0FBECDBF9E012F5F2D
:101570003F4F790110E0722E6F2C01E088E0EBE024
:10158000F2E0DE01AF57BF4F01900D928A95E1F76F
:1015900080E8E3E1F2E0A72DB62D01900D928A9547
:1015A000E1F7CE018F579F4F6C014C0198E0890EF7
:1015B000911C5701F5016081F2E0AF0EB11CF601FC
:1015C0008081F2E0CF0ED11C35DA8C149D0491F7A6
:1015D00080E0EDDA9701285F3F4F7901111121C0BA
:1015E00085389340DCF0009391051F5F103131F690
:1015F000C857DF4F0FB6F894DEBF0FBECDBFDF91E7
:10160000CF911F910F91FF90EF90DF90CF90BF90FF
:10161000AF909F908F907F906F900895109291055A
:10162000E4CF113049F4853893401CF010938E05B7
:10163000DCCF10928E05D9CF183041F58538934014
:101640001CF000938C05D1CF10928C05CECF85383D
:1016500093401CF000933805C8CF10923805C5CFD1
:101660008538934024F000938F051BE087CF1092BC
:101670008F05FBCF853893401CF000930603B5CF50
:1016800010920603B2CF10923705AFCF1930F9F29E
:101690001A3031F31E3071F31F3009F0A6CF8538B0
:1016A00093408CF300933705A0CF88E380DA20E0E5
:1016B00030E0A90197FD0BC088E379DA81309440CE
:1016C00054F588E374DA9C01990F440B550BA9E09B
:1016D000BFEF0E946A1920E034E040E050E00E9431
:1016E0004219BA01A9015F5F6F4F7F4F80910602D7
:1016F000909107028417950799F09A01281B390BDE
:101700002B30310568F05093070240930602409356
:10171000930881E0089520E034E040E050E0D7CF26
:1017200080E00895CF93DF93CFEFD0E0BE010E9419
:10173000511CBC01853591054CF5072E000C880B1A
:10174000990B0E949F1A20E030E04AEA52E40E947E
:10175000041A20E030E04FE753E40E94741B0E941B
:101760006C1AAB01FE01E61BF70B30E020E0509352
:101770001403409313033093160320931503F0933F
:101780001803E0931703DF91CF9108958A3A9105EA
:10179000ECF465557109072E000C880B990B0E941B
:1017A0009F1A20E030E04AEA52E40E94041A20E046
:1017B00030E04FE753E40E94741B0E946C1A9B01B7
:1017C000AE01461B570BF0E0E0E0D1CF6A5A710939
:1017D000072E000C880B990B0E949F1A20E030E026
:1017E0004AEA52E40E94041A20E030E04FE753E452
:1017F0000E94741B0E946C1AFB019E01261B370B72
:1018000050E040E0B4CF90E080E00895FC01858591
:1018100096850895CF93DF9300D000D0CDB7DEB783
:10182000AB011C821D821E82DC01ED91FC910190B6
:10183000F081E02D19821A821B829E012F5F3F4F9B
:10184000BE016C5F7F4F199526960FB6F894DEBFE8
:101850000FBECDBFDF91CF910895282F86FD209533
:10186000E22FEF732F7086FD2F5FE695E695E695E4
:10187000E670F0E0ED56FD4F9181929F902D212D65
:10188000112492959F702295207F922B2081920F98
:1018900087FD919580E8890F08954091000250914D
:1018A000010225E038E0429FC001439F900D529F06
:1018B000900D1124875E994C909301028093000251
:1018C000890F0895FC0101900020E9F73197AF01DD
:1018D000481B590BBC0186EF97E00C94E6038F92EE
:1018E0009F92AF92BF92CF92DF92EF92FF920F93AF
:1018F0001F93CF93DF93CDB7DEB7A1970FB6F894C0
:10190000DEBF0FBECDBF6C01990FEE08FF08F7FEDA
:101910003DC08DE23CD88C0122273327A9012C1928
:101920003D094E095F0919A2CE0181967C019AE01A
:10193000892E912CA12CB12CCA01B901A5019401C9
:101940000E946E19605DF70162937F0121153105D8
:101950004105510589F790E080E0309711F0CF0103
:10196000B1DF800F911FA1960FB6F894DEBF0FBEB6
:10197000CDBFDF91CF911F910F91FF90EF90DF903E
:10198000CF90BF90AF909F908F900895A701960140
:1019900019A28E010F5D1F4F8AE0C82ED12CE12CB9
:1019A000F12CCA01B901A70196010E946E19605D70
:1019B000F80162938F01211531054105510589F721
:1019C00090E080E0309779F2CF017CDFCCCF0E94AD
:1019D000721C1F920F920FB60F9211240BB60F922A
:1019E0002F933F934F935F936F937F938F939F9327
:1019F000AF93BF93EF93FF9386EF97E00E94590454
:101A0000FF91EF91BF91AF919F918F917F916F91D6
:101A10005F914F913F912F910F900BBE0F900FBE92
:101A20000F901F9018951F920F920FB60F921124CE
:101A30000BB60F922F938F939F93EF93FF93E091A9
:101A40000608F09107088081E0910C08F0910D08DC
:101A500082FD1DC0908180910F088F5F8F73209150
:101A60001008821741F0E0910F08F0E0EA50F84FBB
:101A7000958F80930F08FF91EF919F918F912F91F8
:101A80000F900BBE0F900FBE0F901F901895808186
:101A9000F2CF1F920F920FB60F9211242F933F9304
:101AA0008F939F93AF93BF938091DB029091DC0261
:101AB000A091DD02B091DE023091DA0223E0230F23
:101AC0002D3758F50196A11DB11D2093DA028093A0
:101AD000DB029093DC02A093DD02B093DE028091E2
:101AE000DF029091E002A091E102B091E202019642
:101AF000A11DB11D8093DF029093E002A093E1024B
:101B0000B093E202BF91AF919F918F913F912F913E
:101B10000F900FBE0F901F90189526E8230F029686
:101B2000A11DB11DD2CF0F931F93DC01C096FB0105
:101B300005911591259134912C9311961C93119731
:101B400012960C9312976C5F7F4F1396A817B907E4
:101B500071F71F910F910895E6EFF7E0138212825B
:101B600088EE93E0A0E0B0E084839583A683B783FA
:101B700081EC92E09183808385EC90E09587848767
:101B800084EC90E09787868780EC90E0918B808B47
:101B900081EC90E0938B828B82EC90E0958B848B30
:101BA00086EC90E0978B868B118E128E138E148E9E
:101BB000E3E9F8E08FEF80831282118214861386A6
:101BC0008FEF9FEFDC0187839087A187B2876091B9
:101BD000090270910A0288EC90E00E94511C7093F7
:101BE00001096093000964E872E080ED98E09BDFF2
:101BF00064E472E080EA98E096CFCF93DF93CDB7AC
:101C0000DEB7C558D1090FB6F894DEBF0FBECDBF01
:101C1000789484B5826084BD84B5816084BD85B5C7
:101C2000826085BD85B5816085BD80916E008160D3
:101C300080936E0010928100809181008260809379
:101C4000810080918100816080938100809180007B
:101C50008160809380008091B10084608093B100A6
:101C60008091B00081608093B0008091910082608B
:101C70008093910080919100816080939100809188
:101C800090008160809390008091A1008260809399
:101C9000A1008091A10081608093A1008091A000AB
:101CA00081608093A0008091210182608093210156
:101CB00080912101816080932101809120018160C8
:101CC0008093200180917A00846080937A008091D3
:101CD0007A00826080937A0080917A00816080939C
:101CE0007A0080917A00806880937A001092C10017
:101CF00061E088E00E94A60561E089E00E94A605F7
:101D000061E08AE00E94A60561E08BE00E94A605E2
:101D10008091F602811145C01092E8021092E7020C
:101D20008FEF8093EB028093EC028093ED0280931F
:101D3000EE028093EF028093F00281E08093F10243
:101D40001092F3021092F2021092EA021092E9024B
:101D50008091F0079091F107892B31F485EE92E0A4
:101D60009093F1078093F007E091E302F091E40291
:101D7000309721F085EE92E09583848385EE92E0A2
:101D80009093E4028093E3021092F5021092F40221
:101D90008FEA92E09093E6028093E50281E08093DF
:101DA000F6028091010188608093010182E995E04B
:101DB0009093E8028093E70288EC90E09093F3021E
:101DC0008093F2028091960890919708A0919808CC
:101DD000B0919908843C29E09207A105B10520F44F
:101DE00084EC99E0A0E0B0E0809396089093970887
:101DF000A0939808B09399088FEF809393080E945E
:101E00005606E0910608F091070882E08083E09191
:101E10000208F09103081082E0910408F09105088F
:101E200080E1808310920E08E0910A08F0910B087F
:101E300086E08083E0910808F09109088081806144
:101E40008083E0910808F091090880818860808390
:101E5000E0910808F0910908808180688083E09112
:101E60000808F091090880818F7D80838FEC92E0D3
:101E700029DD85ED92E026DD60E087E30E94A6057E
:101E800061E084E00E94A60561E085E00E94A6056D
:101E900060E085E00E941A0561E084E00E941A0576
:101EA00060E087E30E94A60560E088E30E94A60543
:101EB000E9E0F5E081E395E0119211928E179F071A
:101EC000D9F7AE014F5F5F4F5AAF49AF38DB809112
:101ED00091058093900580918F05809308028091F1
:101EE0008E0580938D0580918C05882309F46EC53D
:101EF00080918C05882309F469C521DB89E30E9460
:101F0000D70520E030E0A90197FD0EC089E30E94CB
:101F1000D705813094400CF042C089E30E94D70578
:101F20009C01990F440B550BA7E2B0E00E945E198B
:101F300020E034E040E050E00E94421989019A011B
:101F40000F5F1F4F2F4F3F4FF80188EC90E0B80113
:101F50000E94511C892B29F4C80181709927892B73
:101F600011F0319721F410930A0200930902609155
:101F7000090270910A0288EC90E00E94511C709353
:101F80000109609300094090380564964FAE64974C
:101F900041100AC0109293080E945606A9CF20E073
:101FA00034E040E050E0C0CF809106028093930877
:101FB0007CDB61E085E00E941A0560E085E00E941C
:101FC0001A0551E5E52E55E0F52E10E000E060E041
:101FD00084E00E941A0583E790E00197F1F787E318
:101FE0000E94D705811524E0920714F08FEF93E04B
:101FF00097FF02C090E080E0D7018D939D937D0113
:10200000FD0132976F01BC01990F880B990B0530C8
:1020100011050CF030C40E949F1A20E030E040E22D
:1020200050E40E94041A0E946C1AD6016D937C93AE
:1020300061E084E00E941A050F5F1F4F0830110510
:1020400031F6A0915905B0915A052FEF30E00E946A
:102050006C1C2FEF33E040E050E00E944219122F39
:1020600020934D05C0903705CC2021F160913505B6
:1020700070913605072E000C880B990B0E949F1A51
:102080002DEC3CEC4CE85FE30E94741B4B015C01BF
:10209000612F70E090E080E00E949F1A9B01AC01EC
:1020A000C501B4010E942B1B181614F01A3010F44D
:1020B00010924D052091310530913205F901EE0F56
:1020C000FF1FE75FFA4F80913305909134054081FF
:1020D0005181841B950BD0904D050D2D10E011837F
:1020E0000083800F911F90933405809333052F5FF9
:1020F0003F4F243131050CF0C9C330933205209392
:10210000310564E170E00E94511C7B01709336053B
:1021100060933505E7E0F5E09291829193838283A5
:1021200023E0E937F207C1F780914B0586959D2D95
:102130009695969589279827892790937A03809377
:102140007903B801012E000C880B990B0E949F1A8D
:102150004B015C01B7010F2C000C880B990B0E94FE
:102160009F1A20E030E040E05FE30E94741B9B0177
:10217000AC01C501B4010E942B1B18160CF08BC3D7
:102180003AE03D1508F087C3B8016E197F09072EA4
:10219000000C880B990B0E949F1A20E030E040E071
:1021A0005EE30E94741B0E946C1A70937803609324
:1021B0007703CC2049F06531710534F044E150E0FB
:1021C000509378034093770360917703709178037D
:1021D000072E000C880B990B0E949F1A9B01AC01E3
:1021E00060910202709103028091040290910502B5
:1021F0000E94A0196093020270930302809304026C
:1022000090930502809175039091760301968F3F1C
:10221000910511F00CF05BC39093760380937503E6
:102220000091310510913205000F111F000F111F91
:102230000F5D1C4FD8012D913D914D915C916091A6
:1022400071037091720380917303909174030E94E3
:102250009F198090020290900302A0900402B09017
:102260000502F80180829182A282B382A5019401C5
:102270000E94A0196093710370937203809373039B
:102280009093740380911F039091200301968431F1
:1022900091050CF021C39093200380931F030091BC
:1022A000750310917603C8013DDA80911303909174
:1022B000140390931203809311038091150390915E
:1022C00016039093100380930F038091170390914E
:1022D000180390930E0380930D03C80180589F4FFD
:1022E00021DA809113039091140390930C0380934F
:1022F0000B03809115039091160390930A0380932A
:102300000903809117039091180390930803809319
:10231000070380910603882361F010920C0310924A
:102320000B0310920A0310920903109208031092F3
:1023300007038091050391E0892780930503D1105D
:102340000CC010921C0310921B0310921E031092DB
:102350001D0310921A031092190320E030E040E0B0
:102360005FE3C501B401ECD76093020270930302EE
:1023700080930402909305028091770390917803F3
:10238000AEDA8AE00E94C7046091020270910302F3
:1023900080910402909105020E946C1A8B0140907A
:1023A0000009509001092E965FAE4EAE2E97CB01DC
:1023B00077FF04C088279927801B910B2E966EAD5E
:1023C0007FAD2E970E94511C2C969FAF8EAF2C97FD
:1023D00080910303909104032C966EAC7FAC2C97F4
:1023E0008619970997FF03C09195819591090D97DB
:1023F00034F08091020391E08927809302032C96A8
:102400004EAC5FAC2C975092010340920003509267
:102410000403409203031093FF020093FE02809195
:1024200075039091760301969093760380937503DC
:10243000809011039090120360900F03709010032E
:102440007CAE6BAE40900D0350900E0327965FAEAE
:102450004EAE279760900B0370900C0321967FAED1
:102460006EAE21974090090350900A0323965FAE09
:102470004EAE2397609007037090080325967FAEB9
:102480006EAE25974090090250900A0266965FAEA4
:102490004EAE66972196AEACBFAC2197A818B9088E
:1024A0002396AEADBFAD23976BAC7CACA619B70934
:1024B0002596EEADFFAD259727964EAC5FAC2797DE
:1024C000E419F509A40121966EAC7FAC2197461959
:1024D00057092BAD3CAD23964EAC5FAC2397241926
:1024E000350927968EAD9FAD279725966EAC7FACAC
:1024F0002597861997097090020328967FAE289732
:1025000000913905E0903A0510913B05F0903C05AB
:10251000C0903D05D0903E0562E975E02A967FAFF8
:102520006EAF2A97312C212C26964FAC26972F96EA
:102530004FAE2F972501BB0C660877086A964CAE04
:102540005DAE6EAE7FAE6A972401092C000C660862
:1025500077086E964CAE5DAE6EAE7FAE6E972D0177
:10256000BB0F66087708A2964CAE5DAE6EAE7FAE2E
:10257000A2974BAC5CAC052C000C66087708A696BD
:102580004CAE5DAE6EAE7FAEA6972F01FF0F660814
:102590007708AA964CAE5DAE6EAE7FAEAA97279630
:1025A0004EAC5FAC2797052C000C66087708AE96FA
:1025B0004CAE5DAE6EAE7FAEAE972A01550F66088B
:1025C0007708E2964CAE5DAE6EAE7FAEE297219696
:1025D0004EAC5FAC2197052C000C66087708E69698
:1025E0004CAE5DAE6EAE7FAEE6972901330F660846
:1025F0007708EA964CAE5DAE6EAE7FAEEA97239654
:102600004EAC5FAC2397052C000C66087708EE965D
:102610004CAE5DAE6EAE7FAEEE972C01990F6608A4
:102620007708C258DF4F488259826A827B82CE5730
:10263000D04025964EAC5FAC2597052C000C660863
:102640007708CE57DF4F488259826A827B82C25810
:10265000D04021143104B1F428965FAC289755205E
:1026600009F43FC12496CFAC24972596DFAC25977B
:1026700022961FAD22972396FFAC23970FAD21968C
:10268000EFAC219766962EAD3FAD669721303105B0
:1026900009F483C1AA24A394B12CC1018A0D9B1D06
:1026A0002E966EAD7FAD2E970E94511C2C964EAC8F
:1026B0005FAC2C974816590609F077C0B5010B2C72
:1026C000000C880B990B3BD72DEC3CEC4CE45EE303
:1026D0000E94741B9B01AC0160E070E080E89FE306
:1026E0002ED62B013C0128962FAD2897222309F4E2
:1026F00003C1E2966CAD7DAD8EAD9FADE2971FD765
:10270000A3019201F1D76B017C01E6966CAD7DAD22
:102710008EAD9FADE69713D79B01AC01C701B60103
:102720000FD6DAD6062FE72EEA966CAD7DAD8EADCC
:102730009FADEA9704D7A3019201D6D763966CAFF9
:102740007DAF8EAF9FAF6397EE966CAD7DAD8EADD6
:102750009FADEE97F4D69B01AC0163966CAD7DAD59
:102760008EAD9FAD6397ECD5B7D6162FF72EC25816
:10277000DF4F688179818A819B81CE57D040DFD637
:10278000A3019201B1D72B013C01CE57DF4F6881E5
:1027900079818A819B81C258D040D1D69B01AC01FE
:1027A000C301B201CDD598D66B013FEFA31AB30A8E
:1027B00045E0A416B10409F070CFC1012E966EADAC
:1027C0007FAD2E970E94511C2C964EAC5FAC2C977F
:1027D00048165906D9F428965FAC28975110E8C0DE
:1027E0002496CFAC24972596DFAC259722961FAD73
:1027F00022972396FFAC23970FAD2196EFAC21973C
:1028000064966FAC649728966FAE28972A96AEAD03
:10281000BFAD2A970C9311961C9311971296CC92E8
:10282000BFEF2B1A3B0A2A96EEADFFAD2A973396DF
:102830002A96FFAFEEAF2A97F8EC2F16310409F075
:1028400008CF28964FAC2897409202030093390591
:10285000E0923A0510933B05F0923C05C0923D058D
:10286000D0923E050E9456066DE070E080E090E058
:102870000E9419063DCB63D620E030E040E250E4F0
:10288000C3D52AD6F60171836083D2CB109232056C
:102890001092310536CC56E05D15A0F420E030E012
:1028A000A90160910202709103028091040290914B
:1028B000050246D5609302027093030280930402DE
:1028C0009093050210927803109277039BCC10929C
:1028D000760310927503A4CC1092200310921F036C
:1028E000DECC2F96CFAC2F972796DFAC27971BAD6A
:1028F000FCAC082DE92CC6CE6A966CAD7DAD8EADD4
:102900009FAD6A971CD6A3019201EED66B017C01A4
:102910006E966CAD7DAD8EAD9FAD6E9710D69B0162
:10292000AC01C701B6010CD5D7D5062FE72EA2966C
:102930006CAD7DAD8EAD9FADA29701D6A301920186
:10294000D3D663966CAF7DAF8EAF9FAF6397A696DD
:102950006CAD7DAD8EAD9FADA697F1D59B01AC0161
:1029600063966CAD7DAD8EAD9FAD6397E9D4B4D564
:10297000162FF72EAA966CAD7DAD8EAD9FADAA97A2
:10298000DED5A3019201B0D62B013C01AE966CAD11
:102990007DAD8EAD9FADAE9700CF2F96CFAC2F976C
:1029A0002796DFAC27971BADFCAC082DE92C2ECF6A
:1029B0002F96CFAC2F972796DFAC27971BADFCAC9B
:1029C000082DE92C28961FAE289720CF80919005DE
:1029D000882309F489C089E30E94D70520E030E00C
:1029E000A90197FD0EC089E30E94D705813094406C
:1029F0000CF01DC489E30E94D7059C01990F440B7C
:102A0000550BA1E0BFEF66D420E034E040E050E099
:102A100039D449015A016EEF860E911CA11CB11CDC
:102A200090923A05809239058AE30E94D70520E00A
:102A300030E0A90197FD11C08AE30E94D70520E08C
:102A400034E040E050E0813094403CF48AE30E945E
:102A5000D7059C01990F440B550BA1E0BFEF3AD469
:102A600020E034E040E050E00DD469017A018EEFBF
:102A7000C80ED11CE11CF11CD0923C05C0923B0554
:102A80008BE30E94D70520E030E0A90197FD11C03B
:102A90008BE30E94D70520E034E040E050E0813035
:102AA00094403CF48BE30E94D7059C01990F440BA2
:102AB000550BA1E0BFEF0ED420E034E040E050E041
:102AC000E1D3DA01C90182509F4FAF4FBF4F9093BE
:102AD0003E0580933D058982CA828B83CE01019693
:102AE0000E942D020E94560680918D05882309F4CC
:102AF00053C089E30E94D70520E030E0A90197FD8B
:102B000011C089E30E94D70520E034E040E050E0A6
:102B1000813094403CF489E30E94D7059C01990FD1
:102B2000440B550BA2E3B0E0C9D320E034E040E011
:102B300050E0A8D33093400520933F0580913D0598
:102B400090913B052091390529839A838B83CE018F
:102B500001960E942D020E94560661E070E080E01E
:102B600090E00E94190619821A821B82CE010196FA
:102B70000E942D020E94560680913F0590914005CB
:102B80002AE0289FB001299F700D1124072E000C08
:102B9000880B990B0E94190680910802882309F47A
:102BA0006DC3FE01F196F8AFEFAB80910802882368
:102BB00009F464C30E949F0A80918F0580930802E4
:102BC0008091910580938B0570908E050E94550B26
:102BD00080918305811119C00E944A0660937B058C
:102BE00070937C0580937D0590937E052AE030E00C
:102BF00040E050E020937F053093800540938105AD
:102C00005093820581E0809383050E944A060091DB
:102C10007B0510917C0520917D0530917E05601B20
:102C2000710B820B930B00917F0510918005209111
:102C3000810530918205601771078207930768F15B
:102C40000E944A0660937B0570937C0580937D0506
:102C500090937E05E0EDF8E0A0EAB8E080E0908196
:102C60002D91921789F0921718F49F5F90838F5FD0
:102C70009081291738F43FEF390F8F5F231708F43D
:102C8000DBC23083883130F4319640ED58E04A178A
:102C90005B0729F78EEF0E94110280917305811165
:102CA00014C00E944A0628EE33E040E050E016D3FC
:102CB0003093700520936F0565E070E070937205A6
:102CC0006093710581E0809373050E944A0628EEA7
:102CD00033E040E050E002D380916F0590917005A1
:102CE000281B390B809171059091720528173907BF
:102CF00008F47AC00E944A0628EE33E040E050E033
:102D0000EDD23093700520936F050E944D0C0FE7B4
:102D1000809F700111240E944D0C982E0E944D0C32
:102D2000809FC001112410E8D12ED90E0E944D0CB5
:102D3000C82E0E944D0C809FC001112480E8B82E3F
:102D4000B90E0E944D0CA82E0E944D0C809F800150
:102D500011240E944D0CACAAEE24EA94EDAABEAA5E
:102D600089ABEAAA80E8810F8BAB8E010C5C1F4F08
:102D700025E030E0AE014F5C5F4F70E060E0CE01D7
:102D800001960E944002CCAA90EC892E8DAADEAA60
:102D9000A9AAEAAABBAA2AE030E0AE014F5C5F4FC5
:102DA00065E070E0CE0101960E9440029CAAEDAA67
:102DB00080E88F0D8EABC9AA8AAADBAA2FE030E08B
:102DC000AE014F5C5F4F6AE070E0CE0101960E9459
:102DD000400289AD9AAD805A984009F008F42FC29C
:102DE000CE0101960E94950161E085E00E941A05DE
:102DF00060E085E00E941A0510926205109261055C
:102E000001E515E0A9E4CA2EA5E0DA2EF12CE12CAB
:102E1000B3E7AB2EB12C60E084E00E941A05C50137
:102E20000197F1F787E30E94D705811534E09307F6
:102E300014F08FEF93E097FF02C090E080E0D8019C
:102E40008D939C93BC01990F880B990BB5E0EB1601
:102E5000F1040CF008C273D320E030E040E250E40B
:102E6000D3D23AD3F8017183608361E084E00E9499
:102E70001A05F801A191B1918F012FEF30E02CD507
:102E80002FEF33E040E050E0FDD1D6012D936D01EE
:102E90006091610570916205620F711D709362050A
:102EA00060936105BFEFEB1AFB0AE8E0EE16F10450
:102EB00009F0B1CF072E000C880B990B40D3D4D367
:102EC00020E030E048EC52E40FD406D37093620562
:102ED00060936105A0915905B0915A052FEF30E03C
:102EE000FBD42FEF33E040E050E0CCD120934D05F0
:102EF000622F70E0660F771F072E000C880B990B6E
:102F00001ED36B017C0120E030E048EF51E460917A
:102F10004505709146058091470590914805E4D399
:102F2000A70196010DD220E030E040E05DE3DCD364
:102F30009B01AC012093450530934605409347051E
:102F400050934805C701B601FAD1C6D29B0177FF5D
:102F500004C022273327261B370B70E060E028309F
:102F6000310564F06091630570916405620F731F11
:102F700077FF02C06F5F7F4F75956795709364050B
:102F800060936305072E000C880B990BD8D26B0158
:102F90007C0120E030E048EF51E4609167057091DA
:102FA00068058091690590916A059ED3A7019601F5
:102FB000C7D120E030E040E05DE396D34B015C01F7
:102FC0008092670590926805A0926905B0926A05A3
:102FD00020E030E040E351E4B3D19B01AC01C701F4
:102FE000B60139D31816F4F40E944A06AB01BC01AD
:102FF0008091410590914205A0914305B09144050F
:10300000C296A11DB11D84179507A607B70750F4F6
:103010000E944A06609341057093420580934305E0
:103020009093440580918B05882371F1809165050B
:1030300090916605019668EC70E01FD49093660548
:103040008093650530E020E04FEF6FEFCE010196F1
:103050000E94A8010E944A0627EC30E040E050E0C0
:103060003DD1AB01BC014F5F5F4F6F4F7F4FFA0106
:10307000EE0FFF1FE40FF51FEE56FA4F8981808394
:103080008A8181838B818283772009F4CDC00E945D
:103090004A069B01AC0160E070E986E090E0DED377
:1030A000892F0E942D0C38E0F32E082F2F2D029F20
:1030B000000E00E0011D1124045080916D059091D7
:1030C0006E05080F192F111D10936E0500936D05E5
:1030D0000E944A069B01AC0160E078EA87E090E03C
:1030E000BDD3892F0E942D0C382F4F2D349F030EF6
:1030F00030E0311D1124832F8450C0906B05D09097
:103100006C058C0D9D2D911D90936C0580936B0526
:10311000D02E42E9242E45E0342E50E4C52EC80EB0
:103120003D2DD7FC3095330F632F639F060E60E073
:10313000611D262F239F020E20E0211D53E0659F75
:10314000B0011124822F90E0880F991F681B790B22
:1031500070FF02C06FEF70E0162F1695E12EF12C74
:103160008C2D0E942D0C082F0695E00EF11C20E0FE
:1031700030E040E850E4C501B401B6D22B013C0177
:10318000B70190E080E0D9D16BAF7CAF8DAF9EAF3F
:10319000A301920160E070E08FE793E4D0D09B013F
:1031A000AC016BAD7CAD8DAD9EAD55D240E0181637
:1031B00064F46FEFE61AF108B70190E080E0BDD14A
:1031C000A3019201BCD08DD1462F612F600F30E05A
:1031D00020E0CE0101960E94A8013981D1012C91F5
:1031E000230F08F42FEFF10120833A812181230F6F
:1031F00008F42FEF11962C9311973B8112962C9186
:10320000230F08F42FEF2283F8E0DF0E23E0220ED5
:10321000311C3AE0C30E4AEE57E04215530509F05F
:103220007FCF8FEB0E9411020E945606BECC20E099
:1032300034E040E050E0E5CB9250908323CD80E332
:1032400090E04FA858AC20ED38E0F201D90180FFA2
:1032500005C002C002900E9202900E928250D0F7EA
:103260009040C0F7C1CD6BD120E030E040E250E4A7
:10327000CBD032D1D8016D937C93F7CD0E94EA0474
:103280000C94660F052E97FB16F400940FD057FD93
:1032900005D024D007FC02D046F408C050954095D4
:1032A000309521953F4F4F4F5F4F089590958095F2
:1032B000709561957F4F8F4F9F4F089531D0A59F97
:1032C000900DB49F900DA49F800D911D1124089521
:1032D000B7FFF4CFF3DF821B930B0895A1E21A2E00
:1032E000AA1BBB1BFD010DC0AA1FBB1FEE1FFF1FAA
:1032F000A217B307E407F50720F0A21BB30BE40BFA
:10330000F50B661F771F881F991F1A9469F7609540
:103310007095809590959B01AC01BD01CF010895FA
:10332000A29FB001B39FC001A39F700D811D112406
:10333000911DB29F700D811D1124911D089550584B
:10334000BB27AA270ED04DC13ED130F043D120F08B
:1033500031F49F3F11F41EF433C10EF4E095E7FB06
:1033600029C1E92F4FD180F3BA1762077307840789
:10337000950718F071F49EF567C10EF4E0950B2ED9
:10338000BA2FA02D0B01B90190010C01CA01A001B7
:103390001124FF27591B99F0593F50F4503E68F112
:1033A0001A16F040A22F232F342F4427585FF3CF53
:1033B000469537952795A795F0405395C9F77EF424
:1033C0001F16BA0B620B730B840BBAF09150A1F06D
:1033D000FF0FBB1F661F771F881FC2F70EC0BA0FF3
:1033E000621F731F841F48F4879577956795B7957B
:1033F000F7959E3F08F0B3CF9395880F08F0992773
:10340000EE0F9795879508950CD0EBC0E3D040F070
:10341000DAD030F021F45F3F19F0CCC0511115C162
:10342000CFC0F0D098F39923C9F35523B1F3951B7E
:10343000550BBB27AA2762177307840738F09F5FD5
:103440005F4F220F331F441FAA1FA9F333D00E2E44
:103450003AF0E0E830D091505040E695001CCAF7B1
:1034600029D0FE2F27D0660F771F881FBB1F261776
:1034700037074807AB07B0E809F0BB0B802DBF0149
:10348000FF2793585F4F2AF09E3F510568F092C086
:10349000DCC05F3FECF3983EDCF38695779567954B
:1034A000B795F7959F5FC9F7880F911D96958795FA
:1034B00097F90895E1E0660F771F881FBB1F621719
:1034C00073078407BA0720F0621B730B840BBA0BD7
:1034D000EE1F88F7E095089504D06894B111B5C047
:1034E000089598D088F09F5790F0B92F9927B75139
:1034F000A0F0D1F0660F771F881F991F1AF0BA95B8
:10350000C9F712C0B13081F09FD0B1E008959CC0DE
:10351000672F782F8827B85F39F0B93FCCF38695AD
:1035200077956795B395D9F73EF49095809570950A
:1035300061957F4F8F4F9F4F0895E89409C097FB87
:103540003EF490958095709561957F4F8F4F9F4F7A
:103550009923A9F0F92F96E9BB279395F6958795BE
:1035600077956795B795F111F8CFFAF4BB0F11F481
:1035700060FF1BC06F5F7F4F8F4F9F4F16C0882328
:1035800011F096E911C0772321F09EE8872F762F5E
:1035900005C0662371F096E8862F70E060E02AF09F
:1035A0009A95660F771F881FDAF7880F969587958B
:1035B00097F9089597F99F6780E870E060E00895B3
:1035C0009FEF80EC089500240A941616170618063B
:1035D0000906089500240A94121613061406050617
:1035E0000895092E0394000C11F4882352F0BB0FA8
:1035F00040F4BF2B11F460FF04C06F5F7F4F8F4F0B
:103600009F4F089557FD9058440F551F59F05F3F45
:1036100071F04795880F97FB991F61F09F3F79F0F4
:1036200087950895121613061406551FF2CF469576
:10363000F1DF08C0161617061806991FF1CF8695F8
:103640007105610508940895E894BB2766277727DC
:10365000CB0197F90895ABD008F48FEF08950EF0E1
:10366000CAC0AECF6894A6CFD5DFC8F39923D1F3F3
:10367000C6F3DF93CF931F930F93FF92C92FDD27DC
:1036800088232AF02197660F771F881FDAF720E03A
:1036900030E040E85FEB9FE3883920F0803E30F077
:1036A00021968F774DDEE4EEF0E003C049DEE1E1E4
:1036B000F1E0AFD08B01BE01EC01FB2E6F57710919
:1036C0007595771F880B990B3ADF28E132E741E3C4
:1036D0005FE316D0AF2D9801AE01FF900F911F91BF
:1036E000CF91DF913EDE7DCF0BD07BCF6CDF28F01A
:1036F00071DF18F0952309F05DCF62CF1124A5CFBB
:1037000081DFA0F3959FD1F3950F50E0551F629F85
:10371000F001729FBB27F00DB11D639FAA27F00D2A
:10372000B11DAA1F649F6627B00DA11D661F829F51
:103730002227B00DA11D621F739FB00DA11D621F36
:10374000839FA00D611D221F749F3327A00D611D53
:10375000231F849F600D211D822F762F6A2F112435
:103760009F5750408AF0E1F088234AF0EE0FFF1F88
:10377000BB1F661F771F881F91505040A9F79E3FBF
:10378000510570F017CF61CF5F3FECF3983EDCF34B
:10379000869577956795B795F795E7959F5FC1F7FC
:1037A000FE2B880F911D9695879597F90895990F8F
:1037B0000008550FAA0BE0E8FEEF16161706E807FB
:1037C000F907C0F012161306E407F50798F0621B1C
:1037D000730B840B950B39F40A2661F0232B242BF1
:1037E000252B21F408950A2609F4A140A6958FEF10
:1037F000811D811D08959F3F31F0915020F48795E0
:1038000077956795B795880F911D9695879597F948
:103810000895DF93CF931F930F93FF92EF92DF9260
:103820007B018C01689405C0DA2EEF0169DFFE018F
:10383000E894A5912591359145915591AEF3EF010D
:1038400090DDFE019701A801DA9479F7DF90EF90FF
:10385000FF900F911F91CF91DF910895DB018F931E
:103860009F932CDDBF91AF91A29F800D911DA39FCF
:10387000900DB29F900D11240895AA1BBB1B51E11E
:1038800007C0AA1FBB1FA617B70710F0A61BB70BD0
:10389000881F991F5A95A9F780959095BC01CD0175
:1038A000089597FB072E16F4009406D077FD08D0F4
:1038B000E4DF07FC05D03EF4909581959F4F089575
:1038C000709561957F4F0895EE0FFF1F881F8BBF86
:1038D0000790F691E02D199423DDB7FF0895821B20
:1038E000930B089581E090E0F89400C0F894FFCF26
:1038F000390500001442FF00010200080009000A17
:10390000000B0000000000000000000100000000AB
:1039100000000000000100000000000100010000A4
:103920000000000000000001000000010000000194
:103930000000000000010001000000010001000182
:103940000000000000000000000100010000000075
:103950000001000000010000000100010001000062
:103960000001000000000001000100010000000152
:103970000001000000010001000100010001000140
:10398000000100003131295A1B750A00000000E7D0
:103990000CE70CE70C0A0C060C030C000000005DA1
:1039A0000A1A0A140A0A0C060CE303A50700000011
:1039B000007B04E6031304CB0444042204360453BE
:0839C00054415254000D0A00AD
:020000023000CC
:10E000000D9489F10D94B2F10D94B2F10D94B2F129
:10E010000D94B2F10D94B2F10D94B2F10D94B2F1F0
:10E020000D94B2F10D94B2F10D94B2F10D94B2F1E0
:10E030000D94B2F10D94B2F10D94B2F10D94B2F1D0
:10E040000D94B2F10D94B2F10D94B2F10D94B2F1C0
:10E050000D94B2F10D94B2F10D94B2F10D94B2F1B0
:10E060000D94B2F10D94B2F10D94B2F10D94B2F1A0
:10E070000D94B2F10D94B2F10D94B2F10D94B2F190
:10E080000D94B2F10D94B2F10D94B2F10D94B2F180
:10E090000D94B2F10D94B2F10D94B2F10D94B2F170
:10E0A0000D94B2F10D94B2F10D94B2F10D94B2F160
:10E0B0000D94B2F10D94B2F10D94B2F10D94B2F150
:10E0C0000D94B2F10D94B2F10D94B2F10D94B2F140
:10E0D0000D94B2F10D94B2F10D94B2F10D94B2F130
:10E0E0000D94B2F141546D656761323536300041AF
:10E0F000726475696E6F206578706C6F72657220DE
:10E1000073746B3530305632206279204D4C530099
:10E11000426F6F746C6F616465723E004875683F52
:10E1200000436F6D70696C6564206F6E203D200048
:10E130004350552054797065202020203D20005FF9
:10E140005F4156525F415243485F5F3D2000415658
:10E1500052204C696243205665723D20004743437C
:10E160002056657273696F6E203D20004350552024
:10E1700049442020202020203D20004C6F7720663D
:10E18000757365202020203D20004869676820665F
:10E190007573652020203D200045787420667573D6
:10E1A00065202020203D20004C6F636B2066757336
:10E1B000652020203D20004D617220203720323024
:10E1C000313300312E362E3800342E332E350056A2
:10E1D00023202020414444522020206F7020636F70
:10E1E00064652020202020696E73747275637469E1
:10E1F0006F6E2061646472202020496E74657272B3
:10E20000757074006E6F20766563746F7200726A49
:10E210006D702020006A6D70200057686174207056
:10E220006F72743A00506F7274206E6F7420737541
:10E2300070706F72746564004D7573742062652030
:10E2400061206C6574746572002000577269747483
:10E25000696E672045450052656164696E672045B7
:10E26000450045452065727220636E743D00504F35
:10E27000525400303D5A65726F2061646472003FF1
:10E280003D43505520737461747300403D454550C3
:10E29000524F4D207465737400423D426C696E6B41
:10E2A000204C454400453D44756D70204545505215
:10E2B0004F4D00463D44756D7020464C415348001B
:10E2C000483D48656C70004C3D4C69737420492F83
:10E2D0004F20506F72747300513D51756974005234
:10E2E0003D44756D702052414D00563D73686F7707
:10E2F00020696E7465727275707420566563746FF0
:10E30000727300593D506F727420626C696E6B00BD
:10E310002A0011241FBECFEFD1E2DEBFCDBF01E046
:10E320000CBF12E0A0E0B2E0EEE1FDEF03E00BBFB6
:10E3300002C007900D92A030B107D9F712E0A0E01B
:10E34000B2E001C01D92AE30B107E1F70F9460F367
:10E350000D948DFE01E20EBF0FEF0DBF11241FBE05
:10E360000D9460F30D9400F020E030E040ED57E0B4
:10E3700005C0FA013197F1F72F5F3F4F2817390792
:10E38000C0F308959C01260F311DC901A0E0B0E043
:10E390002F5F3F4FABBFFC018791882361F08093D3
:10E3A000C6008091C00086FFFCCF8091C0008064D1
:10E3B0008093C000EACF08958DE08093C6008091DD
:10E3C000C00086FFFCCF8091C00080648093C000B5
:10E3D0008AE08093C6008091C00086FFFCCF8091C8
:10E3E000C00080648093C00008950F94C2F10F9420
:10E3F000DCF10895FC019081992359F09093C600B7
:10E400008091C00086FFFCCF8091C0008064809323
:10E41000C0003196992379F70895282F982F929567
:10E420009F70892F805D8A3308F0895F8093C600D2
:10E430008091C00086FFFCCF8091C00080648093F3
:10E44000C000822F8F70982F905D9A3308F0995FEB
:10E450009093C6008091C00086FFFCCF8091C000E1
:10E4600080648093C00008959C01FB01853691056E
:10E470001CF46330710594F0C90164E670E00F94F8
:10E480002EFE605D7F4F6093C6008091C00086FFC6
:10E49000FCCF8091C00080648093C0002B30310598
:10E4A00014F43297B4F0C90164E670E00F942EFEC4
:10E4B0006AE070E00F942EFE605D7F4F6093C600AF
:10E4C0008091C00086FFFCCF8091C0008064809363
:10E4D000C000C9016AE070E00F942EFEC0968093E0
:10E4E000C6008091C00086FFFCCF8091C000806490
:10E4F0008093C00008951F93182F8EE692EE60E07F
:10E500000F94C2F11093C6008091C00086FFFCCF2B
:10E510008091C00080648093C0000F94DCF11F9153
:10E5200008952F923F924F925F926F927F928F92B7
:10E530009F92AF92BF92CF92DF92EF92FF920F9392
:10E540001F93DF93CF93CDB7DEB762970FB6F894E2
:10E55000DEBF0FBECDBF382E622ECA01DB015C01CB
:10E560006D01772420E2222E2E010894411C511CBB
:10E570008BC081E0A81680E0B80681E0C80680E084
:10E58000D80628F0C601AA27BB270F940DF2BB2797
:10E59000AD2D9C2D8B2D0F940DF28A2D0F940DF225
:10E5A0002092C6008091C00086FFFCCF8091C00001
:10E5B00080648093C0009DE29093C6008091C0006B
:10E5C00086FFFCCF8091C00080648093C0002092C1
:10E5D000C6008091C00086FFFCCF8091C00080649F
:10E5E0008093C00019828601750188249924A1E0D6
:10E5F0003A1651F03A1620F0B2E03B1661F409C029
:10E600000BBFF701779007C0C7010F9477FE782EF4
:10E6100002C0F7017080872D0F940DF22092C60082
:10E620008091C00086FFFCCF8091C0008064809301
:10E63000C000872D8052F401EF70F0708F3520F408
:10E64000E40DF51D708204C0E40DF51D8EE280839B
:10E650000894E11CF11C011D111D0894811C911CE2
:10E6600090E18916910409F0C2CF80E190E0A0E02A
:10E67000B0E0A80EB91ECA1EDB1E198AC2010F9493
:10E68000FAF10F94DCF16A94662009F072CF629679
:10E690000FB6F894DEBF0FBECDBFCF91DF911F91B3
:10E6A0000F91FF90EF90DF90CF90BF90AF909F9031
:10E6B0008F907F906F905F904F903F902F90089534
:10E6C0002F923F924F925F926F927F928F929F9282
:10E6D000AF92BF92CF92DF92EF92FF920F931F9370
:10E6E000DF93CF93CDB7DEB7CD53D1400FB6F894BB
:10E6F000DEBF0FBECDBF01E20EBF0FEF0DBF94B75F
:10E70000F894A89514BE80916000886180936000A1
:10E7100010926000789493FF05C0E0910002F091A0
:10E7200001021995279A2F9A8091C00082608093E8
:10E73000C00080E18093C40088E18093C1000000A4
:10E74000EE24FF24870144E0A42EB12CCC24DD2448
:10E7500024C0C5010197F1F70894E11CF11C011DCB
:10E76000111D21E2E2162EE4F20620E0020720E06D
:10E77000120718F031E0C32ED12CC801B70127ECE5
:10E780003BE140E050E00F9441FE611571058105C9
:10E79000910519F485B1805885B98091C00087FD35
:10E7A00003C0C114D104A9F2A6014F5F5F4FC25E3E
:10E7B000DE4F59834883CE51D140C25EDE4F8881FF
:10E7C0009981CE51D140019711F00D9410FEC05D9A
:10E7D000DE4F19821882C053D14060E0C15DDE4F28
:10E7E0001882CF52D14088249924C35DDE4F19820C
:10E7F0001882CD52D140C05EDE4F188219821A8233
:10E800001B82C052D140CE5CDE4F188219821A8220
:10E810001B82C253D140EE24FF2487010BBFF701B6
:10E8200007911691C45CDE4F19830883CC53D14005
:10E830000D940BFEC25EDE4F28813981CE51D1404E
:10E840002130310509F52091C600C25EDE4F1982E4
:10E850001882CE51D14022C02F5F3F4F4F4F5F4FA4
:10E86000213082E138078AE7480780E0580780F0C6
:10E87000C45CDE4FE881F981CC53D140EF5FFF4F9C
:10E8800019F0EE27FF27099420E030E040E050E047
:10E890008091C00087FFE0CF2091C600C35DDE4FAE
:10E8A00048815981CD52D1404F5F5F4FC35DDE4FEC
:10E8B00059834883CD52D140213209F063C64A3092
:10E8C000510508F05FC60894811C911C53E0851621
:10E8D000910409F059C600E010E018C081E280936D
:10E8E000C6008091C00086FFFCCF8091C00080648C
:10E8F0008093C0002F5F3F4F2931310579F70F9486
:10E90000DCF10F5F1F4F0530110519F020E030E0FA
:10E91000E5CF10920A0210920B0210920C02109294
:10E920000D02109206021092070210920802109235
:10E930000902109202021092030210920402109235
:10E9400005028FEE90EE60E00F94F5F180E191EE1C
:10E9500060E00F94C2F18091C00087FFFCCF9091DE
:10E96000C600903608F09F759032B8F09093C600BC
:10E970008091C00086FFFCCF8091C00080648093AE
:10E98000C000A0E2A093C6008091C00086FFFCCF2B
:10E990008091C00080648093C000983409F4D7C18E
:10E9A0009934B8F4923409F459C1933458F490333B
:10E9B00019F1903308F4E3C59F33A1F1903409F0C5
:10E9C000DEC5BDC0953409F470C1963409F0D7C5D1
:10E9D00098C1923509F42BC2933538F49C3409F46C
:10E9E000F5C1913509F0CBC518C2963509F445C279
:10E9F000993509F0C4C567C483E792EE62E00F94CD
:10EA0000F5F110920602109207021092080210927D
:10EA1000090210920A0210920B0210920C0210923C
:10EA20000D0213C18FE792EE62E00F94F5F18FEEC5
:10EA300090EE60E00F94F5F181E291EE60E00F94CA
:10EA4000C2F187EB91EE60E00F94F5F180E391EE77
:10EA500060E00F94C2F184EE90EE60E00F94F5F167
:10EA60008FE391EE60E00F94C2F186E090E061E008
:10EA700070E00F9434F20F94DCF18DE591EE60E0DC
:10EA80000F94C2F189EC91EE60E00F94F5F18EE401
:10EA900091EE60E00F94C2F183EC91EE60E00F9490
:10EAA000F5F18CE691EE60E00F94C2F18EE10F94E7
:10EAB0000DF288E90F940DF281E00F940DF20F949E
:10EAC000DCF18BE791EE60E00F94C2F119E0E0E039
:10EAD000F0E010935700E4918E2F0F940DF20F94F5
:10EAE000DCF18AE891EE60E00F94C2F1E3E0F0E03F
:10EAF00010935700E4918E2F0F940DF20F94DCF1D8
:10EB000089E991EE60E00F94C2F1E2E0F0E0109349
:10EB10005700E4918E2F0F940DF20F94DCF188EAE8
:10EB200091EE60E00F94C2F1E1E0F0E01093570045
:10EB30001491812F0F940DF20F94DCF107CF8BE825
:10EB400092EE62E00F94F5F18BE492EE60E00F94A8
:10EB5000F5F10F94DCF100E010E019C0C8016F2D51
:10EB60000F947FFEFF2031F489E492EE60E00F9471
:10EB7000C2F10BC0F092C6008091C00086FFFCCFAE
:10EB80008091C00080648093C0000F5F1F4FC80158
:10EB900081519F41A0E0B0E0ABBFFC01F790BAE229
:10EBA000FB1621F0E2E000301E07C1F60F94DCF105
:10EBB0000F94DCF187E592EE60E00F94F5F10F948D
:10EBC000DCF1CC24DD2400E010E01EC0C8010F946D
:10EBD00077FEF82E882331F489E492EE60E00F94FA
:10EBE000C2F10BC08093C6008091C00086FFFCCFAD
:10EBF0008091C00080648093C000FE1419F00894D6
:10EC0000C11CD11C0F5F1F4FC80181519F41A0E063
:10EC1000B0E0ABBFFC01E790FAE2EF1621F022E092
:10EC20000030120799F60F94DCF10F94DCF182E6C4
:10EC300092EE60E00F94C2F1C60161E070E00F94C3
:10EC400034F20F94DCF10F94DCF110920202109276
:10EC50000302109204021092050278CE89E992EE26
:10EC600062E00F94F5F1279A2F9A16C02F9880E052
:10EC700090E0E0EDF7E03197F1F7019684369105E9
:10EC8000C1F72F9A80E090E0E0EDF7E03197F1F7DF
:10EC9000019684369105C1F78091C00087FFE6CFC9
:10ECA0008091C00087FFFCCF64C485EA92EE62E0E9
:10ECB0000F94F5F140910202509103026091040219
:10ECC0007091050281E020E10F9491F2809102029F
:10ECD00090910302A0910402B091050280509F4FD1
:10ECE000AF4FBF4F8093020290930302A0930402A0
:10ECF000B093050280509041A040B04008F426CE69
:10ED0000A4CF83EB92EE62E00F94F5F140910602FE
:10ED100050910702609108027091090280E020E1A1
:10ED20000F9491F28091060290910702A09108023F
:10ED3000B091090280509F4FAF4FBF4F80930602A2
:10ED400090930702A0930802B0930902FFCD80ECD4
:10ED500092EE62E00F94F5F183E792EE60E00F949B
:10ED6000F5F18FE792EE60E00F94F5F18BE892EE0B
:10ED700060E00F94F5F189E992EE60E00F94F5F10F
:10ED800085EA92EE60E00F94F5F183EB92EE60E09D
:10ED90000F94F5F180EC92EE60E00F94F5F187ECC2
:10EDA00092EE60E00F94F5F188ED92EE60E00F9442
:10EDB000F5F18FED92EE60E00F94F5F18AEE92EEB0
:10EDC00060E00F94F5F183E093EEBDCD87EC92EE19
:10EDD00062E00F94F5F181E40F947BF282E40F94EA
:10EDE0007BF283E40F947BF284E40F947BF285E45E
:10EDF0000F947BF286E40F947BF287E40F947BF20E
:10EE000088E40F947BF28AE40F947BF28BE40F94F6
:10EE10007BF28CE40F947BF299CD88ED92EE62E068
:10EE20000F94F5F1772473948824992409C48FED05
:10EE300092EE62E00F94F5F140910A0250910B02BC
:10EE400060910C0270910D0282E020E10F9491F22A
:10EE500080910A0290910B02A0910C02B0910D02D8
:10EE600080509F4FAF4FBF4F80930A0290930B0289
:10EE7000A0930C02B0930D0269CD8AEE92EE62E08F
:10EE80000F94F5F184EE90EE60E00F94F5F18FECC5
:10EE900091EE60E00F94F5F1662477244301CC5D98
:10EEA000DE4F19821882C452D140D401C301B695F5
:10EEB000A79597958795CA5DDE4F88839983AA8326
:10EEC000BB83C652D140CC5DDE4FA881B981C4520C
:10EED000D1401196CC5DDE4FB983A883C452D14096
:10EEE000CD0162E070E00F9434F2B0E2B093C6005E
:10EEF0008091C00086FFFCCF8091C0008064809329
:10EF0000C000EDE2E093C6008091C00086FFFCCF18
:10EF10008091C00080648093C000F0E2F093C6004E
:10EF20008091C00086FFFCCF8091C00080648093F8
:10EF3000C000CA5DDE4FE880F9800A811B81C6529D
:10EF4000D140BB27A12F902F8F2D0F940DF2CA5DBA
:10EF5000DE4F8881C652D1400F940DF2B0E2FB2EF5
:10EF6000F092C6008091C00086FFFCCF8091C00067
:10EF700080648093C0000DE30093C6008091C000C0
:10EF800086FFFCCF8091C00080648093C00010E2B7
:10EF90001093C6008091C00086FFFCCF8091C00016
:10EFA00080648093C0008BBEF3012791C65DDE4F65
:10EFB0002883CA52D140A22EBB24CC24DD2408943D
:10EFC000611C711C811C911C8BBEF3018791282E42
:10EFD0003324442455240894611C711C811C911C09
:10EFE0008BBEF3013791C55DDE4F3883CB52D140E4
:10EFF0000894611C711C811C911C8BBEF30147910C
:10F00000C45DDE4F4883CC52D140ADEFEA2EAFEF66
:10F01000FA2EAFEF0A2FAFEF1A2F6E0C7F1C801E57
:10F02000911E142D032DF22CEE24EA0CFB1C0C1D5A
:10F030001D1D0F940DF220E22093C6008091C000A8
:10F0400086FFFCCF8091C00080648093C000C65DC5
:10F05000DE4F8881CA52D1400F940DF230E23093D6
:10F06000C6008091C00086FFFCCF8091C000806404
:10F070008093C000C45DDE4F8881CC52D1400F9494
:10F080000DF240E24093C6008091C00086FFFCCFA5
:10F090008091C00080648093C000C55DDE4F888190
:10F0A000CB52D1400F940DF250E25093C6008091A4
:10F0B000C00086FFFCCF8091C00080648093C000B8
:10F0C0008FEFE8168FEFF80680E0080780E018075A
:10F0D00031F484E092EE60E00F94C2F1DFC0D80119
:10F0E000C7018070907CA070B0708050904CA040A0
:10F0F000B040D1F52FEF3FE340E050E0E222F322B1
:10F1000004231523CA5DDE4FA880B980CA80DB8046
:10F11000C652D140AE0CBF1CC01ED11EAA0CBB1CD7
:10F12000CC1CDD1C8EE092EE60E00F94C2F1BB2798
:10F13000A12F902F8F2D0F940DF28E2D0F940DF285
:10F1400030E23093C6008091C00086FFFCCF8091F2
:10F15000C00080648093C0004EE34093C60080915D
:10F16000C00086FFFCCF87C08EE09EEFA0E0B0E03D
:10F17000E822F9220A231B239CE0E91694E9F90608
:10F1800090E0090790E0190709F088C0C45DDE4FE0
:10F19000A881CC52D140EA2EFF2400E010E0102FCD
:10F1A0000F2DFE2CEE24C55DDE4FB881CB52D14031
:10F1B000EB0EF11C011D111DD601C501817090706F
:10F1C000A070B070DC0199278827E80EF91E0A1F8D
:10F1D0001B1F20EF30E040E050E0A222B322C42207
:10F1E000D52241E1AA0CBB1CCC1CDD1C4A95D1F7F1
:10F1F000EA0CFB1C0C1D1D1D81E090E0A0E0B0E0BE
:10F20000282239224A225B2235E1220C331C441C7D
:10F21000551C3A95D1F7E20CF31C041D151D57013E
:10F220006801AA0CBB1CCC1CDD1C85E192EE60E0E1
:10F230000F94C2F1C801AA27BB270F940DF2BB2778
:10F24000A12F902F8F2D0F940DF28E2D0F940DF274
:10F2500090E29093C6008091C00086FFFCCF809121
:10F26000C00080648093C000AEE3A093C60080918C
:10F27000C00086FFFCCF8091C00080648093C000F6
:10F28000C601AA27BB270F940DF2BB27AD2D9C2DDD
:10F290008B2D0F940DF28A2D0F940DF20F94DCF14B
:10F2A000CC5DDE4FE881F981C452D140F99709F471
:10F2B0004DCBF4E0EF2EF12C012D112D6E0C7F1CA7
:10F2C000801E911EF2CD83E093EE62E00F94F5F183
:10F2D0008AE192EE60E00F94C2F18091C00087FF56
:10F2E000FCCF1091C6001F751093C6008091C0001E
:10F2F00086FFFCCF8091C00080648093C0000F9493
:10F30000DCF1812F81548A3108F036C1163409F4BA
:10F3100095C0173490F4133409F44EC0143430F40B
:10F320001134F1F0123409F01DC130C0143409F465
:10F3300059C0153409F016C16BC01A3409F4C4C0A1
:10F340001B3438F4173409F48FC0183409F00AC19B
:10F35000A1C01B3409F4D2C01C3409F003C1E8C0B9
:10F360008FEF81B90DC082B1809582B980E090E0C5
:10F37000E0EDF7E03197F1F70196883C9105C1F790
:10F380008091C00087FFEFCF12B8EFC08FEF84B934
:10F390000DC085B1809585B980E090E0E0EDF7E0A3
:10F3A0003197F1F70196883C9105C1F78091C00033
:10F3B00087FFEFCF15B8D9C08FEF87B90DC088B1DF
:10F3C000809588B980E090E0E0EDF7E03197F1F7C3
:10F3D0000196883C9105C1F78091C00087FFEFCF6F
:10F3E00018B8C3C08FEF8AB90DC08BB180958BB9A7
:10F3F00080E090E0E0EDF7E03197F1F70196883C8E
:10F400009105C1F78091C00087FFEFCF1BB8ADC059
:10F410008FEF8DB90DC08EB180958EB980E090E0F0
:10F42000E0EDF7E03197F1F70196883C9105C1F7DF
:10F430008091C00087FFEFCF1EB897C08FEF80BBD1
:10F440000DC081B3809581BB80E090E0E0EDF7E0F6
:10F450003197F1F70196883C9105C1F78091C00082
:10F4600087FFEFCF11BA81C08FEF83BB0DC084B38C
:10F47000809584BB80E090E0E0EDF7E03197F1F714
:10F480000196883C9105C1F78091C00087FFEFCFBE
:10F4900014BA6BC08FEF809301010FC080910201FD
:10F4A00080958093020180E090E0E0EDF7E03197F5
:10F4B000F1F70196883C9105C1F78091C00087FF64
:10F4C000EDCF1092020151C08FEF809304010FC065
:10F4D0008091050180958093050180E090E0E0ED4A
:10F4E000F7E03197F1F70196883C9105C1F78091DB
:10F4F000C00087FFEDCF1092050137C08FEF8093DA
:10F5000007010FC08091080180958093080180E079
:10F5100090E0E0EDF7E03197F1F70196883C910536
:10F52000C1F78091C00087FFEDCF109208011DC088
:10F530008FEF80930A010FC080910B01809580931B
:10F540000B0180E090E0E0EDF7E03197F1F70196F4
:10F55000883C9105C1F78091C00087FFEDCF1092E4
:10F560000B0103C085E292EEEEC98091C00087FFD7
:10F57000FCCF8091C600EAC988E392EEE4C98CE131
:10F5800091EEE1C988249924933011F1943028F444
:10F59000913089F09230B8F408C0953061F195301F
:10F5A000F0F0963009F048C043C02B3109F042C951
:10F5B00091E06BE13FC96227C15DDE4F2883CF52E6
:10F5C000D14092E037C9B22FA0E0622793E032C960
:10F5D000822F90E0A82BB92B622794E02BC92E3004
:10F5E00009F039C3622795E0C05DDE4F19821882A9
:10F5F000C053D1401FC9E1E0F0E0EC0FFD1FC05D3A
:10F60000DE4F08811981C053D140E00FF11F2083E4
:10F610000F5F1F4FC05DDE4F19830883C053D14079
:10F6200062270A171B0709F005C9D80196E002C92D
:10F63000261709F010C303C0973009F0FBC87724E0
:10F640009981933109F412C19431C8F4963009F4C8
:10F65000D8C0973050F4923009F406C1933009F4C1
:10F660006DC0913009F059C253C0913109F477C08F
:10F67000923108F0BBC0903109F04FC2F5C098310B
:10F6800009F487C0993150F4953109F4EFC09531F0
:10F6900008F4C6C1963109F040C2C2C19A3109F4DA
:10F6A0006CC09A3108F491C09B3109F45BC09D3164
:10F6B00009F033C29D81903359F48F81882311F46E
:10F6C0009EE11CC0813011F091E018C098E916C08D
:10F6D000892F807591F0903539F4E0E0F0E089E011
:10F6E0008093570094910AC0983539F4E3E0F0E034
:10F6F00089E080935700949101C090E01A821B82A8
:10F700008D818C831D829E831F8227E030E009C299
:10F710001A8288E08B8381E48C8386E58D8382E581
:10F720008E8389E48F8383E5888780E589878FE5E9
:10F730008A8782E38B872BE030E0F3C18A818139AD
:10F7400041F0823941F0803911F48FE005C080E04A
:10F7500003C082E001C08AE01A828B8344C0772410
:10F76000739482C08D81882311F48EE12CC0813086
:10F7700011F081E028C088E926C01A82E1E0F0E0BB
:10F7800089E08093570084918B831C8224E030E0D1
:10F79000C8C18B81803589F48C81883039F4E2E0EE
:10F7A000F0E089E08093570084910DC0E0E0F0E044
:10F7B00089E080935700849106C0E3E0F0E089E09F
:10F7C0008093570084911A82DFCF8D81836C99E0FA
:10F7D000E1E0F0E0082E90935700E89507B600FCB2
:10F7E000FDCF1A821B8223E030E09BC180EC8A832C
:10F7F000CE5CDE4F188219821A821B82C253D1401E
:10F800008EC18A8190E0A0E0B0E0582F44273327D2
:10F8100022278B8190E0A0E0B0E0DC0199278827C7
:10F82000282B392B4A2B5B2B8D8190E0A0E0B0E098
:10F83000282B392B4A2B5B2B8C8190E0A0E0B0E089
:10F84000BA2FA92F982F8827282B392B4A2B5B2BCF
:10F85000220F331F441F551FC05EDE4F288339839C
:10F860004A835B83C052D1401A8259C13A81C95C34
:10F87000DE4F3883C753D140CA5CDE4F1882C6536F
:10F88000D1408B81C82EDD24CA5CDE4F488159816E
:10F89000C653D140C42AD52A933109F082C0CE5C28
:10F8A000DE4F88819981AA81BB81C253D1408050AB
:10F8B000904CA340B04030F583E0CE5CDE4FE88052
:10F8C000F9800A811B81C253D140F70100935B008C
:10F8D00080935700E89507B600FCFDCFCE5CDE4F65
:10F8E000088119812A813B81C253D14000501F4FAA
:10F8F0002F4F3F4FCE5CDE4F088319832A833B8313
:10F90000C253D140C05EDE4F488159816A817B81FC
:10F91000C052D140DE011B9631E08C9111962C91A2
:10F9200011971296C75CDE4F2883C953D140C85C3B
:10F93000DE4F1882C853D14090E0C85CDE4FE881AA
:10F94000F981C853D1408E2B9F2B0C01FA01609393
:10F950005B0030935700E89511244E5F5F4F6F4F67
:10F960007F4F0EEFE02E0FEFF02ECE0CDF1CC114F8
:10F97000D10499F685E0C05EDE4F088119812A81A5
:10F980003B81C052D140F80120935B008093570027
:10F99000E89507B600FCFDCF81E180935700E8951C
:10F9A00035C0C05EDE4F88819981AA81BB81C0527B
:10F9B000D140B695A795979587957C018601ABE0D8
:10F9C000AA2EB12CAC0EBD1E0BC0D5016D915D01F0
:10F9D000C7010F947FFE0894E11CF11C01501040F8
:10F9E0000115110591F7A60160E070E0440F551F65
:10F9F000661F771FC05EDE4FE880F9800A811B8199
:10FA0000C052D1404E0D5F1D601F711F1A82C05E33
:10FA1000DE4F488359836A837B83C052D1407FC0C5
:10FA2000FA80C55CDE4FF882CB53D140C65CDE4F16
:10FA30001882CA53D1408B81C82EDD24C65CDE4FAC
:10FA400008811981CA53D140C02AD12A1A828981DA
:10FA5000BE016D5F7F4F843121F59601C05EDE4FA0
:10FA6000E880F9800A811B81C052D1400BBFF701A9
:10FA700087919691DB018C9311969C936E5F7F4FDB
:10FA8000D801C7010296A11DB11DC05EDE4F88835B
:10FA90009983AA83BB83C052D14022503040F1F6F3
:10FAA00036C0C05EDE4F288139814A815B81C052F9
:10FAB000D1400894C108D108760100E010E0089414
:10FAC000C11CD11C0894E11CF11C011D111DE20E8A
:10FAD000F31E041F151F21BDBB27A52F942F832FB5
:10FAE00082BD2F5F3F4F4F4F5F4FF89A80B5DB01CC
:10FAF0008D93BD012E153F054007510761F7C05E8C
:10FB0000DE4F288339834A835B83C052D1409601FC
:10FB10002D5F3F4FFB01108204C080EC8A8322E0FE
:10FB200030E08BE18093C6008091C00086FFFCCF5F
:10FB30008091C00080648093C000C15DDE4FF88179
:10FB4000CF52D140F093C6008091C00086FFFCCF19
:10FB50008091C00080648093C000432F3093C60022
:10FB60008091C00086FFFCCF8091C00080648093AC
:10FB7000C000922F2093C6008091C00086FFFCCF6A
:10FB80008091C00080648093C0008EE08093C600A6
:10FB90008091C00086FFFCCF8091C000806480937C
:10FBA000C00065E1C15DDE4FE880CF52D1406E25D7
:10FBB00069276427FE01319610C090819093C6009A
:10FBC0008091C00086FFFCCF31968091C000806498
:10FBD0008093C0006927215030402115310569F715
:10FBE0006093C6008091C00086FFFCCF8091C0006A
:10FBF00080648093C00085B1805885B9772081F4F6
:10FC0000C15DDE4F0881CF52D1400F5FC15DDE4F35
:10FC10000883CF52D14090E0A0E0B0E00D941AF4F8
:10FC200027982F9880E090E020ED37E0F901319798
:10FC3000F1F7019684369105C9F700008091C00064
:10FC40008D7F8093C00081E180935700E895EE2777
:10FC5000FF270994FFCF90E00D941AF497FB092E2B
:10FC600007260AD077FD04D02ED006D000201AF443
:10FC7000709561957F4F0895F6F7909581959F4F08
:10FC80000895A1E21A2EAA1BBB1BFD010DC0AA1FDD
:10FC9000BB1FEE1FFF1FA217B307E407F50720F0F5
:10FCA000A21BB30BE40BF50B661F771F881F991F70
:10FCB0001A9469F760957095809590959B01AC01B9
:10FCC000BD01CF010895AA1BBB1B51E107C0AA1FAC
:10FCD000BB1FA617B70710F0A61BB70B881F991FED
:10FCE0005A95A9F780959095BC01CD010895F99991
:10FCF000FECF92BD81BDF89A992780B50895262F31
:10FD0000F999FECF1FBA92BD81BD20BD0FB6F89400
:0EFD1000FA9AF99A0FBE01960895F894FFCF63
:040000033000E000E9
:00000001FF
